{"contracts/Marketplace.sol":{"Marketplace":{"abi":[{"inputs":[{"internalType":"address","name":"_nftContract","type":"address"},{"internalType":"uint256","name":"_tokenId","type":"uint256"},{"internalType":"uint256","name":"_amount","type":"uint256"},{"internalType":"uint256","name":"_pricePerToken","type":"uint256"}],"name":"createMarketItem","outputs":[],"stateMutability":"nonpayable","type":"function"},{"inputs":[{"internalType":"address","name":"_nftContract","type":"address"},{"internalType":"uint256","name":"_tokenId","type":"uint256"},{"internalType":"uint256","name":"_amount","type":"uint256"}],"name":"createMarketSale","outputs":[],"stateMutability":"payable","type":"function"},{"inputs":[{"internalType":"address","name":"","type":"address"},{"internalType":"address","name":"","type":"address"},{"internalType":"uint256","name":"","type":"uint256"},{"internalType":"uint256","name":"","type":"uint256"},{"internalType":"bytes","name":"","type":"bytes"}],"name":"onERC1155Received","outputs":[{"internalType":"bytes4","name":"","type":"bytes4"}],"stateMutability":"nonpayable","type":"function"},{"inputs":[{"internalType":"uint256","name":"_tokenId","type":"uint256"}],"name":"pricePerTokenGetter","outputs":[{"internalType":"uint256","name":"","type":"uint256"}],"stateMutability":"view","type":"function"}],"evm":{"bytecode":{"linkReferences":{},"object":"608060405234801561001057600080fd5b506001600081905550610b54806100286000396000f3fe60806040526004361061003f5760003560e01c806321cf91ac14610044578063563f7a8914610060578063599ba2341461009d578063f23a6e61146100c6575b600080fd5b61005e60048036038101906100599190610570565b610103565b005b34801561006c57600080fd5b50610087600480360381019061008291906105c3565b61029d565b60405161009491906105ff565b60405180910390f35b3480156100a957600080fd5b506100c460048036038101906100bf919061061a565b6102bd565b005b3480156100d257600080fd5b506100ed60048036038101906100e891906107c7565b610459565b6040516100fa9190610899565b60405180910390f35b61010b61046e565b600060016000848152602001908152602001600020600401549050818161013291906108e3565b341015610174576040517f08c379a000000000000000000000000000000000000000000000000000000000815260040161016b906109c0565b60405180910390fd5b6001600084815260200190815260200160002060010160009054906101000a900473ffffffffffffffffffffffffffffffffffffffff1673ffffffffffffffffffffffffffffffffffffffff166108fc349081150290604051600060405180830381858888f193505050501580156101f0573d6000803e3d6000fd5b508373ffffffffffffffffffffffffffffffffffffffff1663f242432a303386866040518563ffffffff1660e01b81526004016102309493929190610a26565b600060405180830381600087803b15801561024a57600080fd5b505af115801561025e573d6000803e3d6000fd5b50505050816001600085815260200190815260200160002060030160008282546102889190610a7e565b92505081905550506102986104be565b505050565b600060016000838152602001908152602001600020600401549050919050565b6102c561046e565b6040518060a001604052808573ffffffffffffffffffffffffffffffffffffffff1681526020013373ffffffffffffffffffffffffffffffffffffffff168152602001848152602001838152602001828152506001600085815260200190815260200160002060008201518160000160006101000a81548173ffffffffffffffffffffffffffffffffffffffff021916908373ffffffffffffffffffffffffffffffffffffffff16021790555060208201518160010160006101000a81548173ffffffffffffffffffffffffffffffffffffffff021916908373ffffffffffffffffffffffffffffffffffffffff1602179055506040820151816002015560608201518160030155608082015181600401559050508373ffffffffffffffffffffffffffffffffffffffff1663f242432a333086866040518563ffffffff1660e01b81526004016104199493929190610a26565b600060405180830381600087803b15801561043357600080fd5b505af1158015610447573d6000803e3d6000fd5b505050506104536104be565b50505050565b600063f23a6e6160e01b905095945050505050565b600260005414156104b4576040517f08c379a00000000000000000000000000000000000000000000000000000000081526004016104ab90610afe565b60405180910390fd5b6002600081905550565b6001600081905550565b6000604051905090565b600080fd5b600080fd5b600073ffffffffffffffffffffffffffffffffffffffff82169050919050565b6000610507826104dc565b9050919050565b610517816104fc565b811461052257600080fd5b50565b6000813590506105348161050e565b92915050565b6000819050919050565b61054d8161053a565b811461055857600080fd5b50565b60008135905061056a81610544565b92915050565b600080600060608486031215610589576105886104d2565b5b600061059786828701610525565b93505060206105a88682870161055b565b92505060406105b98682870161055b565b9150509250925092565b6000602082840312156105d9576105d86104d2565b5b60006105e78482850161055b565b91505092915050565b6105f98161053a565b82525050565b600060208201905061061460008301846105f0565b92915050565b60008060008060808587031215610634576106336104d2565b5b600061064287828801610525565b94505060206106538782880161055b565b93505060406106648782880161055b565b92505060606106758782880161055b565b91505092959194509250565b600080fd5b600080fd5b6000601f19601f8301169050919050565b7f4e487b7100000000000000000000000000000000000000000000000000000000600052604160045260246000fd5b6106d48261068b565b810181811067ffffffffffffffff821117156106f3576106f261069c565b5b80604052505050565b60006107066104c8565b905061071282826106cb565b919050565b600067ffffffffffffffff8211156107325761073161069c565b5b61073b8261068b565b9050602081019050919050565b82818337600083830152505050565b600061076a61076584610717565b6106fc565b90508281526020810184848401111561078657610785610686565b5b610791848285610748565b509392505050565b600082601f8301126107ae576107ad610681565b5b81356107be848260208601610757565b91505092915050565b600080600080600060a086880312156107e3576107e26104d2565b5b60006107f188828901610525565b955050602061080288828901610525565b94505060406108138882890161055b565b93505060606108248882890161055b565b925050608086013567ffffffffffffffff811115610845576108446104d7565b5b61085188828901610799565b9150509295509295909350565b60007fffffffff0000000000000000000000000000000000000000000000000000000082169050919050565b6108938161085e565b82525050565b60006020820190506108ae600083018461088a565b92915050565b7f4e487b7100000000000000000000000000000000000000000000000000000000600052601160045260246000fd5b60006108ee8261053a565b91506108f98361053a565b9250817fffffffffffffffffffffffffffffffffffffffffffffffffffffffffffffffff0483118215151615610932576109316108b4565b5b828202905092915050565b600082825260208201905092915050565b7f50726f7669646564206d73672e76616c7565206973206e6f7420656e6f75676860008201527f20666f7220627579696e67207468617420616d6f756e74206f6620746f6b656e602082015250565b60006109aa60408361093d565b91506109b58261094e565b604082019050919050565b600060208201905081810360008301526109d98161099d565b9050919050565b6109e9816104fc565b82525050565b600082825260208201905092915050565b50565b6000610a106000836109ef565b9150610a1b82610a00565b600082019050919050565b600060a082019050610a3b60008301876109e0565b610a4860208301866109e0565b610a5560408301856105f0565b610a6260608301846105f0565b8181036080830152610a7381610a03565b905095945050505050565b6000610a898261053a565b9150610a948361053a565b925082821015610aa757610aa66108b4565b5b828203905092915050565b7f5265656e7472616e637947756172643a207265656e7472616e742063616c6c00600082015250565b6000610ae8601f8361093d565b9150610af382610ab2565b602082019050919050565b60006020820190508181036000830152610b1781610adb565b905091905056fea2646970667358221220bf27305ce93096bfbd3c4f92a808657a429477cdc8d212ac0e76794774219b3a64736f6c63430008090033","opcodes":"PUSH1 0x80 PUSH1 0x40 MSTORE CALLVALUE DUP1 ISZERO PUSH2 0x10 JUMPI PUSH1 0x0 DUP1 REVERT JUMPDEST POP PUSH1 0x1 PUSH1 0x0 DUP2 SWAP1 SSTORE POP PUSH2 0xB54 DUP1 PUSH2 0x28 PUSH1 0x0 CODECOPY PUSH1 0x0 RETURN INVALID PUSH1 0x80 PUSH1 0x40 MSTORE PUSH1 0x4 CALLDATASIZE LT PUSH2 0x3F JUMPI PUSH1 0x0 CALLDATALOAD PUSH1 0xE0 SHR DUP1 PUSH4 0x21CF91AC EQ PUSH2 0x44 JUMPI DUP1 PUSH4 0x563F7A89 EQ PUSH2 0x60 JUMPI DUP1 PUSH4 0x599BA234 EQ PUSH2 0x9D JUMPI DUP1 PUSH4 0xF23A6E61 EQ PUSH2 0xC6 JUMPI JUMPDEST PUSH1 0x0 DUP1 REVERT JUMPDEST PUSH2 0x5E PUSH1 0x4 DUP1 CALLDATASIZE SUB DUP2 ADD SWAP1 PUSH2 0x59 SWAP2 SWAP1 PUSH2 0x570 JUMP JUMPDEST PUSH2 0x103 JUMP JUMPDEST STOP JUMPDEST CALLVALUE DUP1 ISZERO PUSH2 0x6C JUMPI PUSH1 0x0 DUP1 REVERT JUMPDEST POP PUSH2 0x87 PUSH1 0x4 DUP1 CALLDATASIZE SUB DUP2 ADD SWAP1 PUSH2 0x82 SWAP2 SWAP1 PUSH2 0x5C3 JUMP JUMPDEST PUSH2 0x29D JUMP JUMPDEST PUSH1 0x40 MLOAD PUSH2 0x94 SWAP2 SWAP1 PUSH2 0x5FF JUMP JUMPDEST PUSH1 0x40 MLOAD DUP1 SWAP2 SUB SWAP1 RETURN JUMPDEST CALLVALUE DUP1 ISZERO PUSH2 0xA9 JUMPI PUSH1 0x0 DUP1 REVERT JUMPDEST POP PUSH2 0xC4 PUSH1 0x4 DUP1 CALLDATASIZE SUB DUP2 ADD SWAP1 PUSH2 0xBF SWAP2 SWAP1 PUSH2 0x61A JUMP JUMPDEST PUSH2 0x2BD JUMP JUMPDEST STOP JUMPDEST CALLVALUE DUP1 ISZERO PUSH2 0xD2 JUMPI PUSH1 0x0 DUP1 REVERT JUMPDEST POP PUSH2 0xED PUSH1 0x4 DUP1 CALLDATASIZE SUB DUP2 ADD SWAP1 PUSH2 0xE8 SWAP2 SWAP1 PUSH2 0x7C7 JUMP JUMPDEST PUSH2 0x459 JUMP JUMPDEST PUSH1 0x40 MLOAD PUSH2 0xFA SWAP2 SWAP1 PUSH2 0x899 JUMP JUMPDEST PUSH1 0x40 MLOAD DUP1 SWAP2 SUB SWAP1 RETURN JUMPDEST PUSH2 0x10B PUSH2 0x46E JUMP JUMPDEST PUSH1 0x0 PUSH1 0x1 PUSH1 0x0 DUP5 DUP2 MSTORE PUSH1 0x20 ADD SWAP1 DUP2 MSTORE PUSH1 0x20 ADD PUSH1 0x0 KECCAK256 PUSH1 0x4 ADD SLOAD SWAP1 POP DUP2 DUP2 PUSH2 0x132 SWAP2 SWAP1 PUSH2 0x8E3 JUMP JUMPDEST CALLVALUE LT ISZERO PUSH2 0x174 JUMPI PUSH1 0x40 MLOAD PUSH32 0x8C379A000000000000000000000000000000000000000000000000000000000 DUP2 MSTORE PUSH1 0x4 ADD PUSH2 0x16B SWAP1 PUSH2 0x9C0 JUMP JUMPDEST PUSH1 0x40 MLOAD DUP1 SWAP2 SUB SWAP1 REVERT JUMPDEST PUSH1 0x1 PUSH1 0x0 DUP5 DUP2 MSTORE PUSH1 0x20 ADD SWAP1 DUP2 MSTORE PUSH1 0x20 ADD PUSH1 0x0 KECCAK256 PUSH1 0x1 ADD PUSH1 0x0 SWAP1 SLOAD SWAP1 PUSH2 0x100 EXP SWAP1 DIV PUSH20 0xFFFFFFFFFFFFFFFFFFFFFFFFFFFFFFFFFFFFFFFF AND PUSH20 0xFFFFFFFFFFFFFFFFFFFFFFFFFFFFFFFFFFFFFFFF AND PUSH2 0x8FC CALLVALUE SWAP1 DUP2 ISZERO MUL SWAP1 PUSH1 0x40 MLOAD PUSH1 0x0 PUSH1 0x40 MLOAD DUP1 DUP4 SUB DUP2 DUP6 DUP9 DUP9 CALL SWAP4 POP POP POP POP ISZERO DUP1 ISZERO PUSH2 0x1F0 JUMPI RETURNDATASIZE PUSH1 0x0 DUP1 RETURNDATACOPY RETURNDATASIZE PUSH1 0x0 REVERT JUMPDEST POP DUP4 PUSH20 0xFFFFFFFFFFFFFFFFFFFFFFFFFFFFFFFFFFFFFFFF AND PUSH4 0xF242432A ADDRESS CALLER DUP7 DUP7 PUSH1 0x40 MLOAD DUP6 PUSH4 0xFFFFFFFF AND PUSH1 0xE0 SHL DUP2 MSTORE PUSH1 0x4 ADD PUSH2 0x230 SWAP5 SWAP4 SWAP3 SWAP2 SWAP1 PUSH2 0xA26 JUMP JUMPDEST PUSH1 0x0 PUSH1 0x40 MLOAD DUP1 DUP4 SUB DUP2 PUSH1 0x0 DUP8 DUP1 EXTCODESIZE ISZERO DUP1 ISZERO PUSH2 0x24A JUMPI PUSH1 0x0 DUP1 REVERT JUMPDEST POP GAS CALL ISZERO DUP1 ISZERO PUSH2 0x25E JUMPI RETURNDATASIZE PUSH1 0x0 DUP1 RETURNDATACOPY RETURNDATASIZE PUSH1 0x0 REVERT JUMPDEST POP POP POP POP DUP2 PUSH1 0x1 PUSH1 0x0 DUP6 DUP2 MSTORE PUSH1 0x20 ADD SWAP1 DUP2 MSTORE PUSH1 0x20 ADD PUSH1 0x0 KECCAK256 PUSH1 0x3 ADD PUSH1 0x0 DUP3 DUP3 SLOAD PUSH2 0x288 SWAP2 SWAP1 PUSH2 0xA7E JUMP JUMPDEST SWAP3 POP POP DUP2 SWAP1 SSTORE POP POP PUSH2 0x298 PUSH2 0x4BE JUMP JUMPDEST POP POP POP JUMP JUMPDEST PUSH1 0x0 PUSH1 0x1 PUSH1 0x0 DUP4 DUP2 MSTORE PUSH1 0x20 ADD SWAP1 DUP2 MSTORE PUSH1 0x20 ADD PUSH1 0x0 KECCAK256 PUSH1 0x4 ADD SLOAD SWAP1 POP SWAP2 SWAP1 POP JUMP JUMPDEST PUSH2 0x2C5 PUSH2 0x46E JUMP JUMPDEST PUSH1 0x40 MLOAD DUP1 PUSH1 0xA0 ADD PUSH1 0x40 MSTORE DUP1 DUP6 PUSH20 0xFFFFFFFFFFFFFFFFFFFFFFFFFFFFFFFFFFFFFFFF AND DUP2 MSTORE PUSH1 0x20 ADD CALLER PUSH20 0xFFFFFFFFFFFFFFFFFFFFFFFFFFFFFFFFFFFFFFFF AND DUP2 MSTORE PUSH1 0x20 ADD DUP5 DUP2 MSTORE PUSH1 0x20 ADD DUP4 DUP2 MSTORE PUSH1 0x20 ADD DUP3 DUP2 MSTORE POP PUSH1 0x1 PUSH1 0x0 DUP6 DUP2 MSTORE PUSH1 0x20 ADD SWAP1 DUP2 MSTORE PUSH1 0x20 ADD PUSH1 0x0 KECCAK256 PUSH1 0x0 DUP3 ADD MLOAD DUP2 PUSH1 0x0 ADD PUSH1 0x0 PUSH2 0x100 EXP DUP2 SLOAD DUP2 PUSH20 0xFFFFFFFFFFFFFFFFFFFFFFFFFFFFFFFFFFFFFFFF MUL NOT AND SWAP1 DUP4 PUSH20 0xFFFFFFFFFFFFFFFFFFFFFFFFFFFFFFFFFFFFFFFF AND MUL OR SWAP1 SSTORE POP PUSH1 0x20 DUP3 ADD MLOAD DUP2 PUSH1 0x1 ADD PUSH1 0x0 PUSH2 0x100 EXP DUP2 SLOAD DUP2 PUSH20 0xFFFFFFFFFFFFFFFFFFFFFFFFFFFFFFFFFFFFFFFF MUL NOT AND SWAP1 DUP4 PUSH20 0xFFFFFFFFFFFFFFFFFFFFFFFFFFFFFFFFFFFFFFFF AND MUL OR SWAP1 SSTORE POP PUSH1 0x40 DUP3 ADD MLOAD DUP2 PUSH1 0x2 ADD SSTORE PUSH1 0x60 DUP3 ADD MLOAD DUP2 PUSH1 0x3 ADD SSTORE PUSH1 0x80 DUP3 ADD MLOAD DUP2 PUSH1 0x4 ADD SSTORE SWAP1 POP POP DUP4 PUSH20 0xFFFFFFFFFFFFFFFFFFFFFFFFFFFFFFFFFFFFFFFF AND PUSH4 0xF242432A CALLER ADDRESS DUP7 DUP7 PUSH1 0x40 MLOAD DUP6 PUSH4 0xFFFFFFFF AND PUSH1 0xE0 SHL DUP2 MSTORE PUSH1 0x4 ADD PUSH2 0x419 SWAP5 SWAP4 SWAP3 SWAP2 SWAP1 PUSH2 0xA26 JUMP JUMPDEST PUSH1 0x0 PUSH1 0x40 MLOAD DUP1 DUP4 SUB DUP2 PUSH1 0x0 DUP8 DUP1 EXTCODESIZE ISZERO DUP1 ISZERO PUSH2 0x433 JUMPI PUSH1 0x0 DUP1 REVERT JUMPDEST POP GAS CALL ISZERO DUP1 ISZERO PUSH2 0x447 JUMPI RETURNDATASIZE PUSH1 0x0 DUP1 RETURNDATACOPY RETURNDATASIZE PUSH1 0x0 REVERT JUMPDEST POP POP POP POP PUSH2 0x453 PUSH2 0x4BE JUMP JUMPDEST POP POP POP POP JUMP JUMPDEST PUSH1 0x0 PUSH4 0xF23A6E61 PUSH1 0xE0 SHL SWAP1 POP SWAP6 SWAP5 POP POP POP POP POP JUMP JUMPDEST PUSH1 0x2 PUSH1 0x0 SLOAD EQ ISZERO PUSH2 0x4B4 JUMPI PUSH1 0x40 MLOAD PUSH32 0x8C379A000000000000000000000000000000000000000000000000000000000 DUP2 MSTORE PUSH1 0x4 ADD PUSH2 0x4AB SWAP1 PUSH2 0xAFE JUMP JUMPDEST PUSH1 0x40 MLOAD DUP1 SWAP2 SUB SWAP1 REVERT JUMPDEST PUSH1 0x2 PUSH1 0x0 DUP2 SWAP1 SSTORE POP JUMP JUMPDEST PUSH1 0x1 PUSH1 0x0 DUP2 SWAP1 SSTORE POP JUMP JUMPDEST PUSH1 0x0 PUSH1 0x40 MLOAD SWAP1 POP SWAP1 JUMP JUMPDEST PUSH1 0x0 DUP1 REVERT JUMPDEST PUSH1 0x0 DUP1 REVERT JUMPDEST PUSH1 0x0 PUSH20 0xFFFFFFFFFFFFFFFFFFFFFFFFFFFFFFFFFFFFFFFF DUP3 AND SWAP1 POP SWAP2 SWAP1 POP JUMP JUMPDEST PUSH1 0x0 PUSH2 0x507 DUP3 PUSH2 0x4DC JUMP JUMPDEST SWAP1 POP SWAP2 SWAP1 POP JUMP JUMPDEST PUSH2 0x517 DUP2 PUSH2 0x4FC JUMP JUMPDEST DUP2 EQ PUSH2 0x522 JUMPI PUSH1 0x0 DUP1 REVERT JUMPDEST POP JUMP JUMPDEST PUSH1 0x0 DUP2 CALLDATALOAD SWAP1 POP PUSH2 0x534 DUP2 PUSH2 0x50E JUMP JUMPDEST SWAP3 SWAP2 POP POP JUMP JUMPDEST PUSH1 0x0 DUP2 SWAP1 POP SWAP2 SWAP1 POP JUMP JUMPDEST PUSH2 0x54D DUP2 PUSH2 0x53A JUMP JUMPDEST DUP2 EQ PUSH2 0x558 JUMPI PUSH1 0x0 DUP1 REVERT JUMPDEST POP JUMP JUMPDEST PUSH1 0x0 DUP2 CALLDATALOAD SWAP1 POP PUSH2 0x56A DUP2 PUSH2 0x544 JUMP JUMPDEST SWAP3 SWAP2 POP POP JUMP JUMPDEST PUSH1 0x0 DUP1 PUSH1 0x0 PUSH1 0x60 DUP5 DUP7 SUB SLT ISZERO PUSH2 0x589 JUMPI PUSH2 0x588 PUSH2 0x4D2 JUMP JUMPDEST JUMPDEST PUSH1 0x0 PUSH2 0x597 DUP7 DUP3 DUP8 ADD PUSH2 0x525 JUMP JUMPDEST SWAP4 POP POP PUSH1 0x20 PUSH2 0x5A8 DUP7 DUP3 DUP8 ADD PUSH2 0x55B JUMP JUMPDEST SWAP3 POP POP PUSH1 0x40 PUSH2 0x5B9 DUP7 DUP3 DUP8 ADD PUSH2 0x55B JUMP JUMPDEST SWAP2 POP POP SWAP3 POP SWAP3 POP SWAP3 JUMP JUMPDEST PUSH1 0x0 PUSH1 0x20 DUP3 DUP5 SUB SLT ISZERO PUSH2 0x5D9 JUMPI PUSH2 0x5D8 PUSH2 0x4D2 JUMP JUMPDEST JUMPDEST PUSH1 0x0 PUSH2 0x5E7 DUP5 DUP3 DUP6 ADD PUSH2 0x55B JUMP JUMPDEST SWAP2 POP POP SWAP3 SWAP2 POP POP JUMP JUMPDEST PUSH2 0x5F9 DUP2 PUSH2 0x53A JUMP JUMPDEST DUP3 MSTORE POP POP JUMP JUMPDEST PUSH1 0x0 PUSH1 0x20 DUP3 ADD SWAP1 POP PUSH2 0x614 PUSH1 0x0 DUP4 ADD DUP5 PUSH2 0x5F0 JUMP JUMPDEST SWAP3 SWAP2 POP POP JUMP JUMPDEST PUSH1 0x0 DUP1 PUSH1 0x0 DUP1 PUSH1 0x80 DUP6 DUP8 SUB SLT ISZERO PUSH2 0x634 JUMPI PUSH2 0x633 PUSH2 0x4D2 JUMP JUMPDEST JUMPDEST PUSH1 0x0 PUSH2 0x642 DUP8 DUP3 DUP9 ADD PUSH2 0x525 JUMP JUMPDEST SWAP5 POP POP PUSH1 0x20 PUSH2 0x653 DUP8 DUP3 DUP9 ADD PUSH2 0x55B JUMP JUMPDEST SWAP4 POP POP PUSH1 0x40 PUSH2 0x664 DUP8 DUP3 DUP9 ADD PUSH2 0x55B JUMP JUMPDEST SWAP3 POP POP PUSH1 0x60 PUSH2 0x675 DUP8 DUP3 DUP9 ADD PUSH2 0x55B JUMP JUMPDEST SWAP2 POP POP SWAP3 SWAP6 SWAP2 SWAP5 POP SWAP3 POP JUMP JUMPDEST PUSH1 0x0 DUP1 REVERT JUMPDEST PUSH1 0x0 DUP1 REVERT JUMPDEST PUSH1 0x0 PUSH1 0x1F NOT PUSH1 0x1F DUP4 ADD AND SWAP1 POP SWAP2 SWAP1 POP JUMP JUMPDEST PUSH32 0x4E487B7100000000000000000000000000000000000000000000000000000000 PUSH1 0x0 MSTORE PUSH1 0x41 PUSH1 0x4 MSTORE PUSH1 0x24 PUSH1 0x0 REVERT JUMPDEST PUSH2 0x6D4 DUP3 PUSH2 0x68B JUMP JUMPDEST DUP2 ADD DUP2 DUP2 LT PUSH8 0xFFFFFFFFFFFFFFFF DUP3 GT OR ISZERO PUSH2 0x6F3 JUMPI PUSH2 0x6F2 PUSH2 0x69C JUMP JUMPDEST JUMPDEST DUP1 PUSH1 0x40 MSTORE POP POP POP JUMP JUMPDEST PUSH1 0x0 PUSH2 0x706 PUSH2 0x4C8 JUMP JUMPDEST SWAP1 POP PUSH2 0x712 DUP3 DUP3 PUSH2 0x6CB JUMP JUMPDEST SWAP2 SWAP1 POP JUMP JUMPDEST PUSH1 0x0 PUSH8 0xFFFFFFFFFFFFFFFF DUP3 GT ISZERO PUSH2 0x732 JUMPI PUSH2 0x731 PUSH2 0x69C JUMP JUMPDEST JUMPDEST PUSH2 0x73B DUP3 PUSH2 0x68B JUMP JUMPDEST SWAP1 POP PUSH1 0x20 DUP2 ADD SWAP1 POP SWAP2 SWAP1 POP JUMP JUMPDEST DUP3 DUP2 DUP4 CALLDATACOPY PUSH1 0x0 DUP4 DUP4 ADD MSTORE POP POP POP JUMP JUMPDEST PUSH1 0x0 PUSH2 0x76A PUSH2 0x765 DUP5 PUSH2 0x717 JUMP JUMPDEST PUSH2 0x6FC JUMP JUMPDEST SWAP1 POP DUP3 DUP2 MSTORE PUSH1 0x20 DUP2 ADD DUP5 DUP5 DUP5 ADD GT ISZERO PUSH2 0x786 JUMPI PUSH2 0x785 PUSH2 0x686 JUMP JUMPDEST JUMPDEST PUSH2 0x791 DUP5 DUP3 DUP6 PUSH2 0x748 JUMP JUMPDEST POP SWAP4 SWAP3 POP POP POP JUMP JUMPDEST PUSH1 0x0 DUP3 PUSH1 0x1F DUP4 ADD SLT PUSH2 0x7AE JUMPI PUSH2 0x7AD PUSH2 0x681 JUMP JUMPDEST JUMPDEST DUP2 CALLDATALOAD PUSH2 0x7BE DUP5 DUP3 PUSH1 0x20 DUP7 ADD PUSH2 0x757 JUMP JUMPDEST SWAP2 POP POP SWAP3 SWAP2 POP POP JUMP JUMPDEST PUSH1 0x0 DUP1 PUSH1 0x0 DUP1 PUSH1 0x0 PUSH1 0xA0 DUP7 DUP9 SUB SLT ISZERO PUSH2 0x7E3 JUMPI PUSH2 0x7E2 PUSH2 0x4D2 JUMP JUMPDEST JUMPDEST PUSH1 0x0 PUSH2 0x7F1 DUP9 DUP3 DUP10 ADD PUSH2 0x525 JUMP JUMPDEST SWAP6 POP POP PUSH1 0x20 PUSH2 0x802 DUP9 DUP3 DUP10 ADD PUSH2 0x525 JUMP JUMPDEST SWAP5 POP POP PUSH1 0x40 PUSH2 0x813 DUP9 DUP3 DUP10 ADD PUSH2 0x55B JUMP JUMPDEST SWAP4 POP POP PUSH1 0x60 PUSH2 0x824 DUP9 DUP3 DUP10 ADD PUSH2 0x55B JUMP JUMPDEST SWAP3 POP POP PUSH1 0x80 DUP7 ADD CALLDATALOAD PUSH8 0xFFFFFFFFFFFFFFFF DUP2 GT ISZERO PUSH2 0x845 JUMPI PUSH2 0x844 PUSH2 0x4D7 JUMP JUMPDEST JUMPDEST PUSH2 0x851 DUP9 DUP3 DUP10 ADD PUSH2 0x799 JUMP JUMPDEST SWAP2 POP POP SWAP3 SWAP6 POP SWAP3 SWAP6 SWAP1 SWAP4 POP JUMP JUMPDEST PUSH1 0x0 PUSH32 0xFFFFFFFF00000000000000000000000000000000000000000000000000000000 DUP3 AND SWAP1 POP SWAP2 SWAP1 POP JUMP JUMPDEST PUSH2 0x893 DUP2 PUSH2 0x85E JUMP JUMPDEST DUP3 MSTORE POP POP JUMP JUMPDEST PUSH1 0x0 PUSH1 0x20 DUP3 ADD SWAP1 POP PUSH2 0x8AE PUSH1 0x0 DUP4 ADD DUP5 PUSH2 0x88A JUMP JUMPDEST SWAP3 SWAP2 POP POP JUMP JUMPDEST PUSH32 0x4E487B7100000000000000000000000000000000000000000000000000000000 PUSH1 0x0 MSTORE PUSH1 0x11 PUSH1 0x4 MSTORE PUSH1 0x24 PUSH1 0x0 REVERT JUMPDEST PUSH1 0x0 PUSH2 0x8EE DUP3 PUSH2 0x53A JUMP JUMPDEST SWAP2 POP PUSH2 0x8F9 DUP4 PUSH2 0x53A JUMP JUMPDEST SWAP3 POP DUP2 PUSH32 0xFFFFFFFFFFFFFFFFFFFFFFFFFFFFFFFFFFFFFFFFFFFFFFFFFFFFFFFFFFFFFFFF DIV DUP4 GT DUP3 ISZERO ISZERO AND ISZERO PUSH2 0x932 JUMPI PUSH2 0x931 PUSH2 0x8B4 JUMP JUMPDEST JUMPDEST DUP3 DUP3 MUL SWAP1 POP SWAP3 SWAP2 POP POP JUMP JUMPDEST PUSH1 0x0 DUP3 DUP3 MSTORE PUSH1 0x20 DUP3 ADD SWAP1 POP SWAP3 SWAP2 POP POP JUMP JUMPDEST PUSH32 0x50726F7669646564206D73672E76616C7565206973206E6F7420656E6F756768 PUSH1 0x0 DUP3 ADD MSTORE PUSH32 0x20666F7220627579696E67207468617420616D6F756E74206F6620746F6B656E PUSH1 0x20 DUP3 ADD MSTORE POP JUMP JUMPDEST PUSH1 0x0 PUSH2 0x9AA PUSH1 0x40 DUP4 PUSH2 0x93D JUMP JUMPDEST SWAP2 POP PUSH2 0x9B5 DUP3 PUSH2 0x94E JUMP JUMPDEST PUSH1 0x40 DUP3 ADD SWAP1 POP SWAP2 SWAP1 POP JUMP JUMPDEST PUSH1 0x0 PUSH1 0x20 DUP3 ADD SWAP1 POP DUP2 DUP2 SUB PUSH1 0x0 DUP4 ADD MSTORE PUSH2 0x9D9 DUP2 PUSH2 0x99D JUMP JUMPDEST SWAP1 POP SWAP2 SWAP1 POP JUMP JUMPDEST PUSH2 0x9E9 DUP2 PUSH2 0x4FC JUMP JUMPDEST DUP3 MSTORE POP POP JUMP JUMPDEST PUSH1 0x0 DUP3 DUP3 MSTORE PUSH1 0x20 DUP3 ADD SWAP1 POP SWAP3 SWAP2 POP POP JUMP JUMPDEST POP JUMP JUMPDEST PUSH1 0x0 PUSH2 0xA10 PUSH1 0x0 DUP4 PUSH2 0x9EF JUMP JUMPDEST SWAP2 POP PUSH2 0xA1B DUP3 PUSH2 0xA00 JUMP JUMPDEST PUSH1 0x0 DUP3 ADD SWAP1 POP SWAP2 SWAP1 POP JUMP JUMPDEST PUSH1 0x0 PUSH1 0xA0 DUP3 ADD SWAP1 POP PUSH2 0xA3B PUSH1 0x0 DUP4 ADD DUP8 PUSH2 0x9E0 JUMP JUMPDEST PUSH2 0xA48 PUSH1 0x20 DUP4 ADD DUP7 PUSH2 0x9E0 JUMP JUMPDEST PUSH2 0xA55 PUSH1 0x40 DUP4 ADD DUP6 PUSH2 0x5F0 JUMP JUMPDEST PUSH2 0xA62 PUSH1 0x60 DUP4 ADD DUP5 PUSH2 0x5F0 JUMP JUMPDEST DUP2 DUP2 SUB PUSH1 0x80 DUP4 ADD MSTORE PUSH2 0xA73 DUP2 PUSH2 0xA03 JUMP JUMPDEST SWAP1 POP SWAP6 SWAP5 POP POP POP POP POP JUMP JUMPDEST PUSH1 0x0 PUSH2 0xA89 DUP3 PUSH2 0x53A JUMP JUMPDEST SWAP2 POP PUSH2 0xA94 DUP4 PUSH2 0x53A JUMP JUMPDEST SWAP3 POP DUP3 DUP3 LT ISZERO PUSH2 0xAA7 JUMPI PUSH2 0xAA6 PUSH2 0x8B4 JUMP JUMPDEST JUMPDEST DUP3 DUP3 SUB SWAP1 POP SWAP3 SWAP2 POP POP JUMP JUMPDEST PUSH32 0x5265656E7472616E637947756172643A207265656E7472616E742063616C6C00 PUSH1 0x0 DUP3 ADD MSTORE POP JUMP JUMPDEST PUSH1 0x0 PUSH2 0xAE8 PUSH1 0x1F DUP4 PUSH2 0x93D JUMP JUMPDEST SWAP2 POP PUSH2 0xAF3 DUP3 PUSH2 0xAB2 JUMP JUMPDEST PUSH1 0x20 DUP3 ADD SWAP1 POP SWAP2 SWAP1 POP JUMP JUMPDEST PUSH1 0x0 PUSH1 0x20 DUP3 ADD SWAP1 POP DUP2 DUP2 SUB PUSH1 0x0 DUP4 ADD MSTORE PUSH2 0xB17 DUP2 PUSH2 0xADB JUMP JUMPDEST SWAP1 POP SWAP2 SWAP1 POP JUMP INVALID LOG2 PUSH5 0x6970667358 0x22 SLT KECCAK256 0xBF 0x27 ADDRESS 0x5C 0xE9 ADDRESS SWAP7 0xBF 0xBD EXTCODECOPY 0x4F SWAP3 0xA8 ADDMOD PUSH6 0x7A429477CDC8 0xD2 SLT 0xAC 0xE PUSH23 0x794774219B3A64736F6C63430008090033000000000000 "},"methodIdentifiers":{"createMarketItem(address,uint256,uint256,uint256)":"599ba234","createMarketSale(address,uint256,uint256)":"21cf91ac","onERC1155Received(address,address,uint256,uint256,bytes)":"f23a6e61","pricePerTokenGetter(uint256)":"563f7a89"}}}}}