{
  "_format": "hh-sol-artifact-1",
  "contractName": "NFTMarket",
  "sourceName": "contracts/NFTMarket.sol",
  "abi": [
    {
      "inputs": [],
      "stateMutability": "nonpayable",
      "type": "constructor"
    },
    {
      "anonymous": false,
      "inputs": [
        {
          "indexed": true,
          "internalType": "uint256",
          "name": "itemId",
          "type": "uint256"
        },
        {
          "indexed": true,
          "internalType": "address",
          "name": "nftContract",
          "type": "address"
        },
        {
          "indexed": true,
          "internalType": "uint256",
          "name": "tokenId",
          "type": "uint256"
        },
        {
          "indexed": false,
          "internalType": "address",
          "name": "seller",
          "type": "address"
        },
        {
          "indexed": false,
          "internalType": "address",
          "name": "owner",
          "type": "address"
        },
        {
          "indexed": false,
          "internalType": "uint256",
          "name": "price",
          "type": "uint256"
        },
        {
          "indexed": false,
          "internalType": "bool",
          "name": "sold",
          "type": "bool"
        }
      ],
      "name": "MarketItemCreated",
      "type": "event"
    },
    {
      "inputs": [
        {
          "internalType": "address",
          "name": "_nftContract",
          "type": "address"
        },
        {
          "internalType": "uint256",
          "name": "_tokenId",
          "type": "uint256"
        },
        {
          "internalType": "uint256",
          "name": "_price",
          "type": "uint256"
        }
      ],
      "name": "createMarketItem",
      "outputs": [],
      "stateMutability": "payable",
      "type": "function"
    },
    {
      "inputs": [
        {
          "internalType": "address",
          "name": "_nftContract",
          "type": "address"
        },
        {
          "internalType": "uint256",
          "name": "_itemId",
          "type": "uint256"
        }
      ],
      "name": "createMarketSale",
      "outputs": [],
      "stateMutability": "payable",
      "type": "function"
    },
    {
      "inputs": [],
      "name": "fetchItemsCreated",
      "outputs": [
        {
          "components": [
            {
              "internalType": "uint256",
              "name": "itemId",
              "type": "uint256"
            },
            {
              "internalType": "address",
              "name": "nftContract",
              "type": "address"
            },
            {
              "internalType": "uint256",
              "name": "tokenId",
              "type": "uint256"
            },
            {
              "internalType": "address payable",
              "name": "seller",
              "type": "address"
            },
            {
              "internalType": "address payable",
              "name": "owner",
              "type": "address"
            },
            {
              "internalType": "uint256",
              "name": "price",
              "type": "uint256"
            },
            {
              "internalType": "bool",
              "name": "sold",
              "type": "bool"
            }
          ],
          "internalType": "struct NFTMarket.MarketItem[]",
          "name": "",
          "type": "tuple[]"
        }
      ],
      "stateMutability": "view",
      "type": "function"
    },
    {
      "inputs": [],
      "name": "fetchMarketItems",
      "outputs": [
        {
          "components": [
            {
              "internalType": "uint256",
              "name": "itemId",
              "type": "uint256"
            },
            {
              "internalType": "address",
              "name": "nftContract",
              "type": "address"
            },
            {
              "internalType": "uint256",
              "name": "tokenId",
              "type": "uint256"
            },
            {
              "internalType": "address payable",
              "name": "seller",
              "type": "address"
            },
            {
              "internalType": "address payable",
              "name": "owner",
              "type": "address"
            },
            {
              "internalType": "uint256",
              "name": "price",
              "type": "uint256"
            },
            {
              "internalType": "bool",
              "name": "sold",
              "type": "bool"
            }
          ],
          "internalType": "struct NFTMarket.MarketItem[]",
          "name": "",
          "type": "tuple[]"
        }
      ],
      "stateMutability": "view",
      "type": "function"
    },
    {
      "inputs": [],
      "name": "fetchMyNFTs",
      "outputs": [
        {
          "components": [
            {
              "internalType": "uint256",
              "name": "itemId",
              "type": "uint256"
            },
            {
              "internalType": "address",
              "name": "nftContract",
              "type": "address"
            },
            {
              "internalType": "uint256",
              "name": "tokenId",
              "type": "uint256"
            },
            {
              "internalType": "address payable",
              "name": "seller",
              "type": "address"
            },
            {
              "internalType": "address payable",
              "name": "owner",
              "type": "address"
            },
            {
              "internalType": "uint256",
              "name": "price",
              "type": "uint256"
            },
            {
              "internalType": "bool",
              "name": "sold",
              "type": "bool"
            }
          ],
          "internalType": "struct NFTMarket.MarketItem[]",
          "name": "",
          "type": "tuple[]"
        }
      ],
      "stateMutability": "view",
      "type": "function"
    },
    {
      "inputs": [],
      "name": "getListingPrice",
      "outputs": [
        {
          "internalType": "uint256",
          "name": "",
          "type": "uint256"
        }
      ],
      "stateMutability": "view",
      "type": "function"
    },
    {
      "inputs": [],
      "name": "listingPrice",
      "outputs": [
        {
          "internalType": "uint256",
          "name": "",
          "type": "uint256"
        }
      ],
      "stateMutability": "view",
      "type": "function"
    }
  ],
  "bytecode": "0x60806040526658d15e1762800060045534801561001b57600080fd5b50600160008190555033600360006101000a81548173ffffffffffffffffffffffffffffffffffffffff021916908373ffffffffffffffffffffffffffffffffffffffff16021790555061193b806100746000396000f3fe6080604052600436106100705760003560e01c806358eb2df51161004e57806358eb2df5146100f6578063c23b139e14610112578063c78f19f91461012e578063f064c32e1461015957610070565b80630f08efe01461007557806312e85585146100a0578063202e3740146100cb575b600080fd5b34801561008157600080fd5b5061008a610184565b604051610097919061139c565b60405180910390f35b3480156100ac57600080fd5b506100b5610464565b6040516100c291906113cd565b60405180910390f35b3480156100d757600080fd5b506100e061046e565b6040516100ed919061139c565b60405180910390f35b610110600480360381019061010b9190611445565b6107d2565b005b61012c60048036038101906101279190611498565b610af0565b005b34801561013a57600080fd5b50610143610d63565b60405161015091906113cd565b60405180910390f35b34801561016557600080fd5b5061016e610d69565b60405161017b919061139c565b60405180910390f35b6060600061019260016110ca565b905060006101a060026110ca565b6101aa60016110ca565b6101b49190611507565b90506000808267ffffffffffffffff8111156101d3576101d261153b565b5b60405190808252806020026020018201604052801561020c57816020015b6101f9611148565b8152602001906001900390816101f15790505b50905060005b8481101561045957600073ffffffffffffffffffffffffffffffffffffffff1660056000600184610243919061156a565b815260200190815260200160002060040160009054906101000a900473ffffffffffffffffffffffffffffffffffffffff1673ffffffffffffffffffffffffffffffffffffffff161415610446576000600560006001846102a4919061156a565b81526020019081526020016000206000015490506000600560008381526020019081526020016000209050806040518060e0016040529081600082015481526020016001820160009054906101000a900473ffffffffffffffffffffffffffffffffffffffff1673ffffffffffffffffffffffffffffffffffffffff1673ffffffffffffffffffffffffffffffffffffffff168152602001600282015481526020016003820160009054906101000a900473ffffffffffffffffffffffffffffffffffffffff1673ffffffffffffffffffffffffffffffffffffffff1673ffffffffffffffffffffffffffffffffffffffff1681526020016004820160009054906101000a900473ffffffffffffffffffffffffffffffffffffffff1673ffffffffffffffffffffffffffffffffffffffff1673ffffffffffffffffffffffffffffffffffffffff168152602001600582015481526020016006820160009054906101000a900460ff161515151581525050848681518110610429576104286115c0565b5b6020026020010181905250600185610441919061156a565b945050505b8080610451906115ef565b915050610212565b508094505050505090565b6000600454905090565b6060600061047c60016110ca565b905060008060005b83811015610525573373ffffffffffffffffffffffffffffffffffffffff16600560006001846104b4919061156a565b815260200190815260200160002060040160009054906101000a900473ffffffffffffffffffffffffffffffffffffffff1673ffffffffffffffffffffffffffffffffffffffff1614156105125760018361050f919061156a565b92505b808061051d906115ef565b915050610484565b5060008267ffffffffffffffff8111156105425761054161153b565b5b60405190808252806020026020018201604052801561057b57816020015b610568611148565b8152602001906001900390816105605790505b50905060005b848110156107c7573373ffffffffffffffffffffffffffffffffffffffff16600560006001846105b1919061156a565b815260200190815260200160002060040160009054906101000a900473ffffffffffffffffffffffffffffffffffffffff1673ffffffffffffffffffffffffffffffffffffffff1614156107b457600060056000600184610612919061156a565b81526020019081526020016000206000015490506000600560008381526020019081526020016000209050806040518060e0016040529081600082015481526020016001820160009054906101000a900473ffffffffffffffffffffffffffffffffffffffff1673ffffffffffffffffffffffffffffffffffffffff1673ffffffffffffffffffffffffffffffffffffffff168152602001600282015481526020016003820160009054906101000a900473ffffffffffffffffffffffffffffffffffffffff1673ffffffffffffffffffffffffffffffffffffffff1673ffffffffffffffffffffffffffffffffffffffff1681526020016004820160009054906101000a900473ffffffffffffffffffffffffffffffffffffffff1673ffffffffffffffffffffffffffffffffffffffff1673ffffffffffffffffffffffffffffffffffffffff168152602001600582015481526020016006820160009054906101000a900460ff161515151581525050848381518110610797576107966115c0565b5b60200260200101819052506001856107af919061156a565b945050505b80806107bf906115ef565b915050610581565b508094505050505090565b6107da6110d8565b6000811161081d576040517f08c379a000000000000000000000000000000000000000000000000000000000815260040161081490611695565b60405180910390fd5b6004543414610861576040517f08c379a000000000000000000000000000000000000000000000000000000000815260040161085890611727565b60405180910390fd5b61086b6001611128565b600061087760016110ca565b90506040518060e001604052808281526020018573ffffffffffffffffffffffffffffffffffffffff1681526020018481526020013373ffffffffffffffffffffffffffffffffffffffff168152602001600073ffffffffffffffffffffffffffffffffffffffff16815260200183815260200160001515815250600560008381526020019081526020016000206000820151816000015560208201518160010160006101000a81548173ffffffffffffffffffffffffffffffffffffffff021916908373ffffffffffffffffffffffffffffffffffffffff1602179055506040820151816002015560608201518160030160006101000a81548173ffffffffffffffffffffffffffffffffffffffff021916908373ffffffffffffffffffffffffffffffffffffffff16021790555060808201518160040160006101000a81548173ffffffffffffffffffffffffffffffffffffffff021916908373ffffffffffffffffffffffffffffffffffffffff16021790555060a0820151816005015560c08201518160060160006101000a81548160ff0219169083151502179055509050508373ffffffffffffffffffffffffffffffffffffffff166323b872dd3330866040518463ffffffff1660e01b8152600401610a5893929190611756565b600060405180830381600087803b158015610a7257600080fd5b505af1158015610a86573d6000803e3d6000fd5b50505050828473ffffffffffffffffffffffffffffffffffffffff16827f045dfa01dcba2b36aba1d3dc4a874f4b0c5d2fbeb8d2c4b34a7d88c8d8f929d1336000876000604051610ada949392919061179c565b60405180910390a450610aeb61113e565b505050565b610af86110d8565b600060056000838152602001908152602001600020600501549050600060056000848152602001908152602001600020600201549050813414610b70576040517f08c379a0000000000000000000000000000000000000000000000000000000008152600401610b6790611879565b60405180910390fd5b6005600084815260200190815260200160002060030160009054906101000a900473ffffffffffffffffffffffffffffffffffffffff1673ffffffffffffffffffffffffffffffffffffffff166108fc349081150290604051600060405180830381858888f19350505050158015610bec573d6000803e3d6000fd5b508373ffffffffffffffffffffffffffffffffffffffff166323b872dd3033846040518463ffffffff1660e01b8152600401610c2a93929190611756565b600060405180830381600087803b158015610c4457600080fd5b505af1158015610c58573d6000803e3d6000fd5b50505050336005600085815260200190815260200160002060040160006101000a81548173ffffffffffffffffffffffffffffffffffffffff021916908373ffffffffffffffffffffffffffffffffffffffff16021790555060016005600085815260200190815260200160002060060160006101000a81548160ff021916908315150217905550610cea6002611128565b600360009054906101000a900473ffffffffffffffffffffffffffffffffffffffff1673ffffffffffffffffffffffffffffffffffffffff166108fc6004549081150290604051600060405180830381858888f19350505050158015610d54573d6000803e3d6000fd5b505050610d5f61113e565b5050565b60045481565b60606000610d7760016110ca565b905060008060005b83811015610e1f573373ffffffffffffffffffffffffffffffffffffffff16600560008084610dae919061156a565b815260200190815260200160002060030160009054906101000a900473ffffffffffffffffffffffffffffffffffffffff1673ffffffffffffffffffffffffffffffffffffffff161415610e0c57600183610e09919061156a565b92505b8080610e17906115ef565b915050610d7f565b5060008267ffffffffffffffff811115610e3c57610e3b61153b565b5b604051908082528060200260200182016040528015610e7557816020015b610e62611148565b815260200190600190039081610e5a5790505b50905060005b848110156110bf573373ffffffffffffffffffffffffffffffffffffffff16600560008084610eaa919061156a565b815260200190815260200160002060030160009054906101000a900473ffffffffffffffffffffffffffffffffffffffff1673ffffffffffffffffffffffffffffffffffffffff1614156110ac576000600560008084610f0a919061156a565b81526020019081526020016000206000015490506000600560008381526020019081526020016000209050806040518060e0016040529081600082015481526020016001820160009054906101000a900473ffffffffffffffffffffffffffffffffffffffff1673ffffffffffffffffffffffffffffffffffffffff1673ffffffffffffffffffffffffffffffffffffffff168152602001600282015481526020016003820160009054906101000a900473ffffffffffffffffffffffffffffffffffffffff1673ffffffffffffffffffffffffffffffffffffffff1673ffffffffffffffffffffffffffffffffffffffff1681526020016004820160009054906101000a900473ffffffffffffffffffffffffffffffffffffffff1673ffffffffffffffffffffffffffffffffffffffff1673ffffffffffffffffffffffffffffffffffffffff168152602001600582015481526020016006820160009054906101000a900460ff16151515158152505084868151811061108f5761108e6115c0565b5b60200260200101819052506001856110a7919061156a565b945050505b80806110b7906115ef565b915050610e7b565b508094505050505090565b600081600001549050919050565b6002600054141561111e576040517f08c379a0000000000000000000000000000000000000000000000000000000008152600401611115906118e5565b60405180910390fd5b6002600081905550565b6001816000016000828254019250508190555050565b6001600081905550565b6040518060e0016040528060008152602001600073ffffffffffffffffffffffffffffffffffffffff16815260200160008152602001600073ffffffffffffffffffffffffffffffffffffffff168152602001600073ffffffffffffffffffffffffffffffffffffffff168152602001600081526020016000151581525090565b600081519050919050565b600082825260208201905092915050565b6000819050602082019050919050565b6000819050919050565b611208816111f5565b82525050565b600073ffffffffffffffffffffffffffffffffffffffff82169050919050565b60006112398261120e565b9050919050565b6112498161122e565b82525050565b600061125a8261120e565b9050919050565b61126a8161124f565b82525050565b60008115159050919050565b61128581611270565b82525050565b60e0820160008201516112a160008501826111ff565b5060208201516112b46020850182611240565b5060408201516112c760408501826111ff565b5060608201516112da6060850182611261565b5060808201516112ed6080850182611261565b5060a082015161130060a08501826111ff565b5060c082015161131360c085018261127c565b50505050565b6000611325838361128b565b60e08301905092915050565b6000602082019050919050565b6000611349826111c9565b61135381856111d4565b935061135e836111e5565b8060005b8381101561138f5781516113768882611319565b975061138183611331565b925050600181019050611362565b5085935050505092915050565b600060208201905081810360008301526113b6818461133e565b905092915050565b6113c7816111f5565b82525050565b60006020820190506113e260008301846113be565b92915050565b600080fd5b6113f68161122e565b811461140157600080fd5b50565b600081359050611413816113ed565b92915050565b611422816111f5565b811461142d57600080fd5b50565b60008135905061143f81611419565b92915050565b60008060006060848603121561145e5761145d6113e8565b5b600061146c86828701611404565b935050602061147d86828701611430565b925050604061148e86828701611430565b9150509250925092565b600080604083850312156114af576114ae6113e8565b5b60006114bd85828601611404565b92505060206114ce85828601611430565b9150509250929050565b7f4e487b7100000000000000000000000000000000000000000000000000000000600052601160045260246000fd5b6000611512826111f5565b915061151d836111f5565b9250828210156115305761152f6114d8565b5b828203905092915050565b7f4e487b7100000000000000000000000000000000000000000000000000000000600052604160045260246000fd5b6000611575826111f5565b9150611580836111f5565b9250827fffffffffffffffffffffffffffffffffffffffffffffffffffffffffffffffff038211156115b5576115b46114d8565b5b828201905092915050565b7f4e487b7100000000000000000000000000000000000000000000000000000000600052603260045260246000fd5b60006115fa826111f5565b91507fffffffffffffffffffffffffffffffffffffffffffffffffffffffffffffffff82141561162d5761162c6114d8565b5b600182019050919050565b600082825260208201905092915050565b7f5072696365206d757374206265206174206c6561737420312077656900000000600082015250565b600061167f601c83611638565b915061168a82611649565b602082019050919050565b600060208201905081810360008301526116ae81611672565b9050919050565b7f50726f7669646564206d73672e76616c7565206d75737420626520657175616c60008201527f20746f20746865206c697374696e672070726963650000000000000000000000602082015250565b6000611711603583611638565b915061171c826116b5565b604082019050919050565b6000602082019050818103600083015261174081611704565b9050919050565b6117508161122e565b82525050565b600060608201905061176b6000830186611747565b6117786020830185611747565b61178560408301846113be565b949350505050565b61179681611270565b82525050565b60006080820190506117b16000830187611747565b6117be6020830186611747565b6117cb60408301856113be565b6117d8606083018461178d565b95945050505050565b7f506c656173652070726f76696465207468652061736b696e672070726963652060008201527f696e206f7264657220746f20636f6d706c65746520746865207075726368617360208201527f6500000000000000000000000000000000000000000000000000000000000000604082015250565b6000611863604183611638565b915061186e826117e1565b606082019050919050565b6000602082019050818103600083015261189281611856565b9050919050565b7f5265656e7472616e637947756172643a207265656e7472616e742063616c6c00600082015250565b60006118cf601f83611638565b91506118da82611899565b602082019050919050565b600060208201905081810360008301526118fe816118c2565b905091905056fea2646970667358221220c84306ad9d22ff50d608399acb07c3551950128c5d5ff3330d48584fb76a927764736f6c63430008090033",
  "linkReferences": {},
  "deployedLinkReferences": {}
}