{
  "_format": "hh-sol-artifact-1",
  "contractName": "F_NFT",
  "sourceName": "contracts/F_NFT.sol",
  "abi": [
    {
      "inputs": [
        {
          "internalType": "address",
          "name": "_marketplace",
          "type": "address"
        }
      ],
      "stateMutability": "nonpayable",
      "type": "constructor"
    },
    {
      "anonymous": false,
      "inputs": [
        {
          "indexed": true,
          "internalType": "address",
          "name": "account",
          "type": "address"
        },
        {
          "indexed": true,
          "internalType": "address",
          "name": "operator",
          "type": "address"
        },
        {
          "indexed": false,
          "internalType": "bool",
          "name": "approved",
          "type": "bool"
        }
      ],
      "name": "ApprovalForAll",
      "type": "event"
    },
    {
      "anonymous": false,
      "inputs": [
        {
          "indexed": true,
          "internalType": "address",
          "name": "operator",
          "type": "address"
        },
        {
          "indexed": true,
          "internalType": "address",
          "name": "from",
          "type": "address"
        },
        {
          "indexed": true,
          "internalType": "address",
          "name": "to",
          "type": "address"
        },
        {
          "indexed": false,
          "internalType": "uint256[]",
          "name": "ids",
          "type": "uint256[]"
        },
        {
          "indexed": false,
          "internalType": "uint256[]",
          "name": "values",
          "type": "uint256[]"
        }
      ],
      "name": "TransferBatch",
      "type": "event"
    },
    {
      "anonymous": false,
      "inputs": [
        {
          "indexed": true,
          "internalType": "address",
          "name": "operator",
          "type": "address"
        },
        {
          "indexed": true,
          "internalType": "address",
          "name": "from",
          "type": "address"
        },
        {
          "indexed": true,
          "internalType": "address",
          "name": "to",
          "type": "address"
        },
        {
          "indexed": false,
          "internalType": "uint256",
          "name": "id",
          "type": "uint256"
        },
        {
          "indexed": false,
          "internalType": "uint256",
          "name": "value",
          "type": "uint256"
        }
      ],
      "name": "TransferSingle",
      "type": "event"
    },
    {
      "anonymous": false,
      "inputs": [
        {
          "indexed": false,
          "internalType": "string",
          "name": "value",
          "type": "string"
        },
        {
          "indexed": true,
          "internalType": "uint256",
          "name": "id",
          "type": "uint256"
        }
      ],
      "name": "URI",
      "type": "event"
    },
    {
      "inputs": [
        {
          "internalType": "address",
          "name": "account",
          "type": "address"
        },
        {
          "internalType": "uint256",
          "name": "id",
          "type": "uint256"
        }
      ],
      "name": "balanceOf",
      "outputs": [
        {
          "internalType": "uint256",
          "name": "",
          "type": "uint256"
        }
      ],
      "stateMutability": "view",
      "type": "function"
    },
    {
      "inputs": [
        {
          "internalType": "address[]",
          "name": "accounts",
          "type": "address[]"
        },
        {
          "internalType": "uint256[]",
          "name": "ids",
          "type": "uint256[]"
        }
      ],
      "name": "balanceOfBatch",
      "outputs": [
        {
          "internalType": "uint256[]",
          "name": "",
          "type": "uint256[]"
        }
      ],
      "stateMutability": "view",
      "type": "function"
    },
    {
      "inputs": [
        {
          "internalType": "uint256",
          "name": "",
          "type": "uint256"
        }
      ],
      "name": "idToQuantity",
      "outputs": [
        {
          "internalType": "uint256",
          "name": "",
          "type": "uint256"
        }
      ],
      "stateMutability": "view",
      "type": "function"
    },
    {
      "inputs": [
        {
          "internalType": "address",
          "name": "account",
          "type": "address"
        },
        {
          "internalType": "address",
          "name": "operator",
          "type": "address"
        }
      ],
      "name": "isApprovedForAll",
      "outputs": [
        {
          "internalType": "bool",
          "name": "",
          "type": "bool"
        }
      ],
      "stateMutability": "view",
      "type": "function"
    },
    {
      "inputs": [],
      "name": "marketplace",
      "outputs": [
        {
          "internalType": "address",
          "name": "",
          "type": "address"
        }
      ],
      "stateMutability": "view",
      "type": "function"
    },
    {
      "inputs": [
        {
          "internalType": "uint256",
          "name": "_amount",
          "type": "uint256"
        },
        {
          "internalType": "string",
          "name": "_uri",
          "type": "string"
        },
        {
          "internalType": "bytes",
          "name": "_data",
          "type": "bytes"
        }
      ],
      "name": "mint",
      "outputs": [],
      "stateMutability": "nonpayable",
      "type": "function"
    },
    {
      "inputs": [],
      "name": "name",
      "outputs": [
        {
          "internalType": "string",
          "name": "",
          "type": "string"
        }
      ],
      "stateMutability": "view",
      "type": "function"
    },
    {
      "inputs": [
        {
          "internalType": "address",
          "name": "from",
          "type": "address"
        },
        {
          "internalType": "address",
          "name": "to",
          "type": "address"
        },
        {
          "internalType": "uint256[]",
          "name": "ids",
          "type": "uint256[]"
        },
        {
          "internalType": "uint256[]",
          "name": "amounts",
          "type": "uint256[]"
        },
        {
          "internalType": "bytes",
          "name": "data",
          "type": "bytes"
        }
      ],
      "name": "safeBatchTransferFrom",
      "outputs": [],
      "stateMutability": "nonpayable",
      "type": "function"
    },
    {
      "inputs": [
        {
          "internalType": "address",
          "name": "from",
          "type": "address"
        },
        {
          "internalType": "address",
          "name": "to",
          "type": "address"
        },
        {
          "internalType": "uint256",
          "name": "id",
          "type": "uint256"
        },
        {
          "internalType": "uint256",
          "name": "amount",
          "type": "uint256"
        },
        {
          "internalType": "bytes",
          "name": "data",
          "type": "bytes"
        }
      ],
      "name": "safeTransferFrom",
      "outputs": [],
      "stateMutability": "nonpayable",
      "type": "function"
    },
    {
      "inputs": [
        {
          "internalType": "address",
          "name": "operator",
          "type": "address"
        },
        {
          "internalType": "bool",
          "name": "approved",
          "type": "bool"
        }
      ],
      "name": "setApprovalForAll",
      "outputs": [],
      "stateMutability": "nonpayable",
      "type": "function"
    },
    {
      "inputs": [
        {
          "internalType": "bytes4",
          "name": "interfaceId",
          "type": "bytes4"
        }
      ],
      "name": "supportsInterface",
      "outputs": [
        {
          "internalType": "bool",
          "name": "",
          "type": "bool"
        }
      ],
      "stateMutability": "view",
      "type": "function"
    },
    {
      "inputs": [],
      "name": "tokenIds",
      "outputs": [
        {
          "internalType": "uint256",
          "name": "_value",
          "type": "uint256"
        }
      ],
      "stateMutability": "view",
      "type": "function"
    },
    {
      "inputs": [
        {
          "internalType": "uint256",
          "name": "_tokenId",
          "type": "uint256"
        }
      ],
      "name": "uri",
      "outputs": [
        {
          "internalType": "string",
          "name": "",
          "type": "string"
        }
      ],
      "stateMutability": "view",
      "type": "function"
    }
  ],
  "bytecode": "0x60806040526040518060400160405280600881526020017f4b4841415354454800000000000000000000000000000000000000000000000081525060069080519060200190620000519291906200010b565b503480156200005f57600080fd5b5060405162002ed838038062002ed8833981810160405281019062000085919062000225565b60405180602001604052806000815250620000a681620000ef60201b60201c565b5080600760006101000a81548173ffffffffffffffffffffffffffffffffffffffff021916908373ffffffffffffffffffffffffffffffffffffffff16021790555050620002bc565b8060029080519060200190620001079291906200010b565b5050565b828054620001199062000286565b90600052602060002090601f0160209004810192826200013d576000855562000189565b82601f106200015857805160ff191683800117855562000189565b8280016001018555821562000189579182015b82811115620001885782518255916020019190600101906200016b565b5b5090506200019891906200019c565b5090565b5b80821115620001b75760008160009055506001016200019d565b5090565b600080fd5b600073ffffffffffffffffffffffffffffffffffffffff82169050919050565b6000620001ed82620001c0565b9050919050565b620001ff81620001e0565b81146200020b57600080fd5b50565b6000815190506200021f81620001f4565b92915050565b6000602082840312156200023e576200023d620001bb565b5b60006200024e848285016200020e565b91505092915050565b7f4e487b7100000000000000000000000000000000000000000000000000000000600052602260045260246000fd5b600060028204905060018216806200029f57607f821691505b60208210811415620002b657620002b562000257565b5b50919050565b612c0c80620002cc6000396000f3fe608060405234801561001057600080fd5b50600436106100ce5760003560e01c8063714cff561161008c578063a22cb46511610066578063a22cb46514610237578063abc8c7af14610253578063e985e9c514610271578063f242432a146102a1576100ce565b8063714cff56146101cd578063785cc997146101eb5780637a11576014610207576100ce565b8062fdd58e146100d357806301ffc9a71461010357806306fdde03146101335780630e89341c146101515780632eb2c2d6146101815780634e1273f41461019d575b600080fd5b6100ed60048036038101906100e891906118b9565b6102bd565b6040516100fa9190611908565b60405180910390f35b61011d6004803603810190610118919061197b565b610386565b60405161012a91906119c3565b60405180910390f35b61013b610468565b6040516101489190611a77565b60405180910390f35b61016b60048036038101906101669190611a99565b6104f6565b6040516101789190611a77565b60405180910390f35b61019b60048036038101906101969190611cc3565b61059b565b005b6101b760048036038101906101b29190611e55565b61063c565b6040516101c49190611f8b565b60405180910390f35b6101d5610755565b6040516101e29190611908565b60405180910390f35b6102056004803603810190610200919061204e565b610761565b005b610221600480360381019061021c9190611a99565b6107f8565b60405161022e9190611908565b60405180910390f35b610251600480360381019061024c9190612105565b610810565b005b61025b610826565b6040516102689190612154565b60405180910390f35b61028b6004803603810190610286919061216f565b61084c565b60405161029891906119c3565b60405180910390f35b6102bb60048036038101906102b691906121af565b6108e0565b005b60008073ffffffffffffffffffffffffffffffffffffffff168373ffffffffffffffffffffffffffffffffffffffff16141561032e576040517f08c379a0000000000000000000000000000000000000000000000000000000008152600401610325906122b8565b60405180910390fd5b60008083815260200190815260200160002060008473ffffffffffffffffffffffffffffffffffffffff1673ffffffffffffffffffffffffffffffffffffffff16815260200190815260200160002054905092915050565b60007fd9b67a26000000000000000000000000000000000000000000000000000000007bffffffffffffffffffffffffffffffffffffffffffffffffffffffff1916827bffffffffffffffffffffffffffffffffffffffffffffffffffffffff1916148061045157507f0e89341c000000000000000000000000000000000000000000000000000000007bffffffffffffffffffffffffffffffffffffffffffffffffffffffff1916827bffffffffffffffffffffffffffffffffffffffffffffffffffffffff1916145b80610461575061046082610981565b5b9050919050565b6006805461047590612307565b80601f01602080910402602001604051908101604052809291908181526020018280546104a190612307565b80156104ee5780601f106104c3576101008083540402835291602001916104ee565b820191906000526020600020905b8154815290600101906020018083116104d157829003601f168201915b505050505081565b606060056000838152602001908152602001600020805461051690612307565b80601f016020809104026020016040519081016040528092919081815260200182805461054290612307565b801561058f5780601f106105645761010080835404028352916020019161058f565b820191906000526020600020905b81548152906001019060200180831161057257829003601f168201915b50505050509050919050565b6105a36109eb565b73ffffffffffffffffffffffffffffffffffffffff168573ffffffffffffffffffffffffffffffffffffffff1614806105e957506105e8856105e36109eb565b61084c565b5b610628576040517f08c379a000000000000000000000000000000000000000000000000000000000815260040161061f906123ab565b60405180910390fd5b61063585858585856109f3565b5050505050565b60608151835114610682576040517f08c379a00000000000000000000000000000000000000000000000000000000081526004016106799061243d565b60405180910390fd5b6000835167ffffffffffffffff81111561069f5761069e611acb565b5b6040519080825280602002602001820160405280156106cd5781602001602082028036833780820191505090505b50905060005b845181101561074a5761071a8582815181106106f2576106f161245d565b5b602002602001015185838151811061070d5761070c61245d565b5b60200260200101516102bd565b82828151811061072d5761072c61245d565b5b60200260200101818152505080610743906124bb565b90506106d3565b508091505092915050565b60038060000154905081565b61076b6003610d15565b60006107776003610d2b565b905061078533828685610d39565b6107b2600760009054906101000a900473ffffffffffffffffffffffffffffffffffffffff166001610810565b836004600083815260200190815260200160002081905550826005600083815260200190815260200160002090805190602001906107f192919061176e565b5050505050565b60046020528060005260406000206000915090505481565b61082261081b6109eb565b8383610eea565b5050565b600760009054906101000a900473ffffffffffffffffffffffffffffffffffffffff1681565b6000600160008473ffffffffffffffffffffffffffffffffffffffff1673ffffffffffffffffffffffffffffffffffffffff16815260200190815260200160002060008373ffffffffffffffffffffffffffffffffffffffff1673ffffffffffffffffffffffffffffffffffffffff16815260200190815260200160002060009054906101000a900460ff16905092915050565b6108e86109eb565b73ffffffffffffffffffffffffffffffffffffffff168573ffffffffffffffffffffffffffffffffffffffff16148061092e575061092d856109286109eb565b61084c565b5b61096d576040517f08c379a0000000000000000000000000000000000000000000000000000000008152600401610964906123ab565b60405180910390fd5b61097a8585858585611057565b5050505050565b60007f01ffc9a7000000000000000000000000000000000000000000000000000000007bffffffffffffffffffffffffffffffffffffffffffffffffffffffff1916827bffffffffffffffffffffffffffffffffffffffffffffffffffffffff1916149050919050565b600033905090565b8151835114610a37576040517f08c379a0000000000000000000000000000000000000000000000000000000008152600401610a2e90612576565b60405180910390fd5b600073ffffffffffffffffffffffffffffffffffffffff168473ffffffffffffffffffffffffffffffffffffffff161415610aa7576040517f08c379a0000000000000000000000000000000000000000000000000000000008152600401610a9e90612608565b60405180910390fd5b6000610ab16109eb565b9050610ac18187878787876112f3565b60005b8451811015610c72576000858281518110610ae257610ae161245d565b5b602002602001015190506000858381518110610b0157610b0061245d565b5b60200260200101519050600080600084815260200190815260200160002060008b73ffffffffffffffffffffffffffffffffffffffff1673ffffffffffffffffffffffffffffffffffffffff16815260200190815260200160002054905081811015610ba2576040517f08c379a0000000000000000000000000000000000000000000000000000000008152600401610b999061269a565b60405180910390fd5b81810360008085815260200190815260200160002060008c73ffffffffffffffffffffffffffffffffffffffff1673ffffffffffffffffffffffffffffffffffffffff168152602001908152602001600020819055508160008085815260200190815260200160002060008b73ffffffffffffffffffffffffffffffffffffffff1673ffffffffffffffffffffffffffffffffffffffff1681526020019081526020016000206000828254610c5791906126ba565b9250508190555050505080610c6b906124bb565b9050610ac4565b508473ffffffffffffffffffffffffffffffffffffffff168673ffffffffffffffffffffffffffffffffffffffff168273ffffffffffffffffffffffffffffffffffffffff167f4a39dc06d4c0dbc64b70af90fd698a233a518aa5d07e595d983b8c0526c8f7fb8787604051610ce9929190612710565b60405180910390a4610cff8187878787876112fb565b610d0d818787878787611303565b505050505050565b6001816000016000828254019250508190555050565b600081600001549050919050565b600073ffffffffffffffffffffffffffffffffffffffff168473ffffffffffffffffffffffffffffffffffffffff161415610da9576040517f08c379a0000000000000000000000000000000000000000000000000000000008152600401610da0906127b9565b60405180910390fd5b6000610db36109eb565b90506000610dc0856114ea565b90506000610dcd856114ea565b9050610dde836000898585896112f3565b8460008088815260200190815260200160002060008973ffffffffffffffffffffffffffffffffffffffff1673ffffffffffffffffffffffffffffffffffffffff1681526020019081526020016000206000828254610e3d91906126ba565b925050819055508673ffffffffffffffffffffffffffffffffffffffff16600073ffffffffffffffffffffffffffffffffffffffff168473ffffffffffffffffffffffffffffffffffffffff167fc3d58168c5ae7397731d063d5bbf3d657854427343f4c083240f7aacaa2d0f628989604051610ebb9291906127d9565b60405180910390a4610ed2836000898585896112fb565b610ee183600089898989611564565b50505050505050565b8173ffffffffffffffffffffffffffffffffffffffff168373ffffffffffffffffffffffffffffffffffffffff161415610f59576040517f08c379a0000000000000000000000000000000000000000000000000000000008152600401610f5090612874565b60405180910390fd5b80600160008573ffffffffffffffffffffffffffffffffffffffff1673ffffffffffffffffffffffffffffffffffffffff16815260200190815260200160002060008473ffffffffffffffffffffffffffffffffffffffff1673ffffffffffffffffffffffffffffffffffffffff16815260200190815260200160002060006101000a81548160ff0219169083151502179055508173ffffffffffffffffffffffffffffffffffffffff168373ffffffffffffffffffffffffffffffffffffffff167f17307eab39ab6107e8899845ad3d59bd9653f200f220920489ca2b5937696c318360405161104a91906119c3565b60405180910390a3505050565b600073ffffffffffffffffffffffffffffffffffffffff168473ffffffffffffffffffffffffffffffffffffffff1614156110c7576040517f08c379a00000000000000000000000000000000000000000000000000000000081526004016110be90612608565b60405180910390fd5b60006110d16109eb565b905060006110de856114ea565b905060006110eb856114ea565b90506110fb8389898585896112f3565b600080600088815260200190815260200160002060008a73ffffffffffffffffffffffffffffffffffffffff1673ffffffffffffffffffffffffffffffffffffffff16815260200190815260200160002054905085811015611192576040517f08c379a00000000000000000000000000000000000000000000000000000000081526004016111899061269a565b60405180910390fd5b85810360008089815260200190815260200160002060008b73ffffffffffffffffffffffffffffffffffffffff1673ffffffffffffffffffffffffffffffffffffffff168152602001908152602001600020819055508560008089815260200190815260200160002060008a73ffffffffffffffffffffffffffffffffffffffff1673ffffffffffffffffffffffffffffffffffffffff168152602001908152602001600020600082825461124791906126ba565b925050819055508773ffffffffffffffffffffffffffffffffffffffff168973ffffffffffffffffffffffffffffffffffffffff168573ffffffffffffffffffffffffffffffffffffffff167fc3d58168c5ae7397731d063d5bbf3d657854427343f4c083240f7aacaa2d0f628a8a6040516112c49291906127d9565b60405180910390a46112da848a8a86868a6112fb565b6112e8848a8a8a8a8a611564565b505050505050505050565b505050505050565b505050505050565b6113228473ffffffffffffffffffffffffffffffffffffffff1661174b565b156114e2578373ffffffffffffffffffffffffffffffffffffffff1663bc197c8187878686866040518663ffffffff1660e01b81526004016113689594939291906128e9565b602060405180830381600087803b15801561138257600080fd5b505af19250505080156113b357506040513d601f19601f820116820180604052508101906113b09190612966565b60015b611459576113bf6129a0565b806308c379a0141561141c57506113d46129c2565b806113df575061141e565b806040517f08c379a00000000000000000000000000000000000000000000000000000000081526004016114139190611a77565b60405180910390fd5b505b6040517f08c379a000000000000000000000000000000000000000000000000000000000815260040161145090612aca565b60405180910390fd5b63bc197c8160e01b7bffffffffffffffffffffffffffffffffffffffffffffffffffffffff1916817bffffffffffffffffffffffffffffffffffffffffffffffffffffffff1916146114e0576040517f08c379a00000000000000000000000000000000000000000000000000000000081526004016114d790612b5c565b60405180910390fd5b505b505050505050565b60606000600167ffffffffffffffff81111561150957611508611acb565b5b6040519080825280602002602001820160405280156115375781602001602082028036833780820191505090505b509050828160008151811061154f5761154e61245d565b5b60200260200101818152505080915050919050565b6115838473ffffffffffffffffffffffffffffffffffffffff1661174b565b15611743578373ffffffffffffffffffffffffffffffffffffffff1663f23a6e6187878686866040518663ffffffff1660e01b81526004016115c9959493929190612b7c565b602060405180830381600087803b1580156115e357600080fd5b505af192505050801561161457506040513d601f19601f820116820180604052508101906116119190612966565b60015b6116ba576116206129a0565b806308c379a0141561167d57506116356129c2565b80611640575061167f565b806040517f08c379a00000000000000000000000000000000000000000000000000000000081526004016116749190611a77565b60405180910390fd5b505b6040517f08c379a00000000000000000000000000000000000000000000000000000000081526004016116b190612aca565b60405180910390fd5b63f23a6e6160e01b7bffffffffffffffffffffffffffffffffffffffffffffffffffffffff1916817bffffffffffffffffffffffffffffffffffffffffffffffffffffffff191614611741576040517f08c379a000000000000000000000000000000000000000000000000000000000815260040161173890612b5c565b60405180910390fd5b505b505050505050565b6000808273ffffffffffffffffffffffffffffffffffffffff163b119050919050565b82805461177a90612307565b90600052602060002090601f01602090048101928261179c57600085556117e3565b82601f106117b557805160ff19168380011785556117e3565b828001600101855582156117e3579182015b828111156117e25782518255916020019190600101906117c7565b5b5090506117f091906117f4565b5090565b5b8082111561180d5760008160009055506001016117f5565b5090565b6000604051905090565b600080fd5b600080fd5b600073ffffffffffffffffffffffffffffffffffffffff82169050919050565b600061185082611825565b9050919050565b61186081611845565b811461186b57600080fd5b50565b60008135905061187d81611857565b92915050565b6000819050919050565b61189681611883565b81146118a157600080fd5b50565b6000813590506118b38161188d565b92915050565b600080604083850312156118d0576118cf61181b565b5b60006118de8582860161186e565b92505060206118ef858286016118a4565b9150509250929050565b61190281611883565b82525050565b600060208201905061191d60008301846118f9565b92915050565b60007fffffffff0000000000000000000000000000000000000000000000000000000082169050919050565b61195881611923565b811461196357600080fd5b50565b6000813590506119758161194f565b92915050565b6000602082840312156119915761199061181b565b5b600061199f84828501611966565b91505092915050565b60008115159050919050565b6119bd816119a8565b82525050565b60006020820190506119d860008301846119b4565b92915050565b600081519050919050565b600082825260208201905092915050565b60005b83811015611a185780820151818401526020810190506119fd565b83811115611a27576000848401525b50505050565b6000601f19601f8301169050919050565b6000611a49826119de565b611a5381856119e9565b9350611a638185602086016119fa565b611a6c81611a2d565b840191505092915050565b60006020820190508181036000830152611a918184611a3e565b905092915050565b600060208284031215611aaf57611aae61181b565b5b6000611abd848285016118a4565b91505092915050565b600080fd5b7f4e487b7100000000000000000000000000000000000000000000000000000000600052604160045260246000fd5b611b0382611a2d565b810181811067ffffffffffffffff82111715611b2257611b21611acb565b5b80604052505050565b6000611b35611811565b9050611b418282611afa565b919050565b600067ffffffffffffffff821115611b6157611b60611acb565b5b602082029050602081019050919050565b600080fd5b6000611b8a611b8584611b46565b611b2b565b90508083825260208201905060208402830185811115611bad57611bac611b72565b5b835b81811015611bd65780611bc288826118a4565b845260208401935050602081019050611baf565b5050509392505050565b600082601f830112611bf557611bf4611ac6565b5b8135611c05848260208601611b77565b91505092915050565b600080fd5b600067ffffffffffffffff821115611c2e57611c2d611acb565b5b611c3782611a2d565b9050602081019050919050565b82818337600083830152505050565b6000611c66611c6184611c13565b611b2b565b905082815260208101848484011115611c8257611c81611c0e565b5b611c8d848285611c44565b509392505050565b600082601f830112611caa57611ca9611ac6565b5b8135611cba848260208601611c53565b91505092915050565b600080600080600060a08688031215611cdf57611cde61181b565b5b6000611ced8882890161186e565b9550506020611cfe8882890161186e565b945050604086013567ffffffffffffffff811115611d1f57611d1e611820565b5b611d2b88828901611be0565b935050606086013567ffffffffffffffff811115611d4c57611d4b611820565b5b611d5888828901611be0565b925050608086013567ffffffffffffffff811115611d7957611d78611820565b5b611d8588828901611c95565b9150509295509295909350565b600067ffffffffffffffff821115611dad57611dac611acb565b5b602082029050602081019050919050565b6000611dd1611dcc84611d92565b611b2b565b90508083825260208201905060208402830185811115611df457611df3611b72565b5b835b81811015611e1d5780611e09888261186e565b845260208401935050602081019050611df6565b5050509392505050565b600082601f830112611e3c57611e3b611ac6565b5b8135611e4c848260208601611dbe565b91505092915050565b60008060408385031215611e6c57611e6b61181b565b5b600083013567ffffffffffffffff811115611e8a57611e89611820565b5b611e9685828601611e27565b925050602083013567ffffffffffffffff811115611eb757611eb6611820565b5b611ec385828601611be0565b9150509250929050565b600081519050919050565b600082825260208201905092915050565b6000819050602082019050919050565b611f0281611883565b82525050565b6000611f148383611ef9565b60208301905092915050565b6000602082019050919050565b6000611f3882611ecd565b611f428185611ed8565b9350611f4d83611ee9565b8060005b83811015611f7e578151611f658882611f08565b9750611f7083611f20565b925050600181019050611f51565b5085935050505092915050565b60006020820190508181036000830152611fa58184611f2d565b905092915050565b600067ffffffffffffffff821115611fc857611fc7611acb565b5b611fd182611a2d565b9050602081019050919050565b6000611ff1611fec84611fad565b611b2b565b90508281526020810184848401111561200d5761200c611c0e565b5b612018848285611c44565b509392505050565b600082601f83011261203557612034611ac6565b5b8135612045848260208601611fde565b91505092915050565b6000806000606084860312156120675761206661181b565b5b6000612075868287016118a4565b935050602084013567ffffffffffffffff81111561209657612095611820565b5b6120a286828701612020565b925050604084013567ffffffffffffffff8111156120c3576120c2611820565b5b6120cf86828701611c95565b9150509250925092565b6120e2816119a8565b81146120ed57600080fd5b50565b6000813590506120ff816120d9565b92915050565b6000806040838503121561211c5761211b61181b565b5b600061212a8582860161186e565b925050602061213b858286016120f0565b9150509250929050565b61214e81611845565b82525050565b60006020820190506121696000830184612145565b92915050565b600080604083850312156121865761218561181b565b5b60006121948582860161186e565b92505060206121a58582860161186e565b9150509250929050565b600080600080600060a086880312156121cb576121ca61181b565b5b60006121d98882890161186e565b95505060206121ea8882890161186e565b94505060406121fb888289016118a4565b935050606061220c888289016118a4565b925050608086013567ffffffffffffffff81111561222d5761222c611820565b5b61223988828901611c95565b9150509295509295909350565b7f455243313135353a2061646472657373207a65726f206973206e6f742061207660008201527f616c6964206f776e657200000000000000000000000000000000000000000000602082015250565b60006122a2602a836119e9565b91506122ad82612246565b604082019050919050565b600060208201905081810360008301526122d181612295565b9050919050565b7f4e487b7100000000000000000000000000000000000000000000000000000000600052602260045260246000fd5b6000600282049050600182168061231f57607f821691505b60208210811415612333576123326122d8565b5b50919050565b7f455243313135353a2063616c6c6572206973206e6f7420746f6b656e206f776e60008201527f6572206f7220617070726f766564000000000000000000000000000000000000602082015250565b6000612395602e836119e9565b91506123a082612339565b604082019050919050565b600060208201905081810360008301526123c481612388565b9050919050565b7f455243313135353a206163636f756e747320616e6420696473206c656e67746860008201527f206d69736d617463680000000000000000000000000000000000000000000000602082015250565b60006124276029836119e9565b9150612432826123cb565b604082019050919050565b600060208201905081810360008301526124568161241a565b9050919050565b7f4e487b7100000000000000000000000000000000000000000000000000000000600052603260045260246000fd5b7f4e487b7100000000000000000000000000000000000000000000000000000000600052601160045260246000fd5b60006124c682611883565b91507fffffffffffffffffffffffffffffffffffffffffffffffffffffffffffffffff8214156124f9576124f861248c565b5b600182019050919050565b7f455243313135353a2069647320616e6420616d6f756e7473206c656e6774682060008201527f6d69736d61746368000000000000000000000000000000000000000000000000602082015250565b60006125606028836119e9565b915061256b82612504565b604082019050919050565b6000602082019050818103600083015261258f81612553565b9050919050565b7f455243313135353a207472616e7366657220746f20746865207a65726f20616460008201527f6472657373000000000000000000000000000000000000000000000000000000602082015250565b60006125f26025836119e9565b91506125fd82612596565b604082019050919050565b60006020820190508181036000830152612621816125e5565b9050919050565b7f455243313135353a20696e73756666696369656e742062616c616e636520666f60008201527f72207472616e7366657200000000000000000000000000000000000000000000602082015250565b6000612684602a836119e9565b915061268f82612628565b604082019050919050565b600060208201905081810360008301526126b381612677565b9050919050565b60006126c582611883565b91506126d083611883565b9250827fffffffffffffffffffffffffffffffffffffffffffffffffffffffffffffffff038211156127055761270461248c565b5b828201905092915050565b6000604082019050818103600083015261272a8185611f2d565b9050818103602083015261273e8184611f2d565b90509392505050565b7f455243313135353a206d696e7420746f20746865207a65726f2061646472657360008201527f7300000000000000000000000000000000000000000000000000000000000000602082015250565b60006127a36021836119e9565b91506127ae82612747565b604082019050919050565b600060208201905081810360008301526127d281612796565b9050919050565b60006040820190506127ee60008301856118f9565b6127fb60208301846118f9565b9392505050565b7f455243313135353a2073657474696e6720617070726f76616c2073746174757360008201527f20666f722073656c660000000000000000000000000000000000000000000000602082015250565b600061285e6029836119e9565b915061286982612802565b604082019050919050565b6000602082019050818103600083015261288d81612851565b9050919050565b600081519050919050565b600082825260208201905092915050565b60006128bb82612894565b6128c5818561289f565b93506128d58185602086016119fa565b6128de81611a2d565b840191505092915050565b600060a0820190506128fe6000830188612145565b61290b6020830187612145565b818103604083015261291d8186611f2d565b905081810360608301526129318185611f2d565b9050818103608083015261294581846128b0565b90509695505050505050565b6000815190506129608161194f565b92915050565b60006020828403121561297c5761297b61181b565b5b600061298a84828501612951565b91505092915050565b60008160e01c9050919050565b600060033d11156129bf5760046000803e6129bc600051612993565b90505b90565b600060443d10156129d257612a55565b6129da611811565b60043d036004823e80513d602482011167ffffffffffffffff82111715612a02575050612a55565b808201805167ffffffffffffffff811115612a205750505050612a55565b80602083010160043d038501811115612a3d575050505050612a55565b612a4c82602001850186611afa565b82955050505050505b90565b7f455243313135353a207472616e7366657220746f206e6f6e2d4552433131353560008201527f526563656976657220696d706c656d656e746572000000000000000000000000602082015250565b6000612ab46034836119e9565b9150612abf82612a58565b604082019050919050565b60006020820190508181036000830152612ae381612aa7565b9050919050565b7f455243313135353a204552433131353552656365697665722072656a6563746560008201527f6420746f6b656e73000000000000000000000000000000000000000000000000602082015250565b6000612b466028836119e9565b9150612b5182612aea565b604082019050919050565b60006020820190508181036000830152612b7581612b39565b9050919050565b600060a082019050612b916000830188612145565b612b9e6020830187612145565b612bab60408301866118f9565b612bb860608301856118f9565b8181036080830152612bca81846128b0565b9050969550505050505056fea26469706673582212207ec481f97724454cd2757cc1a97f0d62d22dd5b965e8c61605c1b5c92db4f34d64736f6c63430008090033",
  "linkReferences": {},
  "deployedLinkReferences": {}
}