{
  "_format": "hh-sol-artifact-1",
  "contractName": "F_NFT",
  "sourceName": "contracts/F_NFT.sol",
  "abi": [
    {
      "inputs": [
        {
          "internalType": "address",
          "name": "_marketplace",
          "type": "address"
        }
      ],
      "stateMutability": "nonpayable",
      "type": "constructor"
    },
    {
      "anonymous": false,
      "inputs": [
        {
          "indexed": true,
          "internalType": "address",
          "name": "account",
          "type": "address"
        },
        {
          "indexed": true,
          "internalType": "address",
          "name": "operator",
          "type": "address"
        },
        {
          "indexed": false,
          "internalType": "bool",
          "name": "approved",
          "type": "bool"
        }
      ],
      "name": "ApprovalForAll",
      "type": "event"
    },
    {
      "anonymous": false,
      "inputs": [
        {
          "indexed": true,
          "internalType": "address",
          "name": "operator",
          "type": "address"
        },
        {
          "indexed": true,
          "internalType": "address",
          "name": "from",
          "type": "address"
        },
        {
          "indexed": true,
          "internalType": "address",
          "name": "to",
          "type": "address"
        },
        {
          "indexed": false,
          "internalType": "uint256[]",
          "name": "ids",
          "type": "uint256[]"
        },
        {
          "indexed": false,
          "internalType": "uint256[]",
          "name": "values",
          "type": "uint256[]"
        }
      ],
      "name": "TransferBatch",
      "type": "event"
    },
    {
      "anonymous": false,
      "inputs": [
        {
          "indexed": true,
          "internalType": "address",
          "name": "operator",
          "type": "address"
        },
        {
          "indexed": true,
          "internalType": "address",
          "name": "from",
          "type": "address"
        },
        {
          "indexed": true,
          "internalType": "address",
          "name": "to",
          "type": "address"
        },
        {
          "indexed": false,
          "internalType": "uint256",
          "name": "id",
          "type": "uint256"
        },
        {
          "indexed": false,
          "internalType": "uint256",
          "name": "value",
          "type": "uint256"
        }
      ],
      "name": "TransferSingle",
      "type": "event"
    },
    {
      "anonymous": false,
      "inputs": [
        {
          "indexed": false,
          "internalType": "string",
          "name": "value",
          "type": "string"
        },
        {
          "indexed": true,
          "internalType": "uint256",
          "name": "id",
          "type": "uint256"
        }
      ],
      "name": "URI",
      "type": "event"
    },
    {
      "inputs": [
        {
          "internalType": "address",
          "name": "account",
          "type": "address"
        },
        {
          "internalType": "uint256",
          "name": "id",
          "type": "uint256"
        }
      ],
      "name": "balanceOf",
      "outputs": [
        {
          "internalType": "uint256",
          "name": "",
          "type": "uint256"
        }
      ],
      "stateMutability": "view",
      "type": "function"
    },
    {
      "inputs": [
        {
          "internalType": "address[]",
          "name": "accounts",
          "type": "address[]"
        },
        {
          "internalType": "uint256[]",
          "name": "ids",
          "type": "uint256[]"
        }
      ],
      "name": "balanceOfBatch",
      "outputs": [
        {
          "internalType": "uint256[]",
          "name": "",
          "type": "uint256[]"
        }
      ],
      "stateMutability": "view",
      "type": "function"
    },
    {
      "inputs": [
        {
          "internalType": "uint256",
          "name": "",
          "type": "uint256"
        }
      ],
      "name": "idToQuantity",
      "outputs": [
        {
          "internalType": "uint256",
          "name": "",
          "type": "uint256"
        }
      ],
      "stateMutability": "view",
      "type": "function"
    },
    {
      "inputs": [
        {
          "internalType": "address",
          "name": "account",
          "type": "address"
        },
        {
          "internalType": "address",
          "name": "operator",
          "type": "address"
        }
      ],
      "name": "isApprovedForAll",
      "outputs": [
        {
          "internalType": "bool",
          "name": "",
          "type": "bool"
        }
      ],
      "stateMutability": "view",
      "type": "function"
    },
    {
      "inputs": [
        {
          "internalType": "uint256",
          "name": "_tokenId",
          "type": "uint256"
        }
      ],
      "name": "list",
      "outputs": [],
      "stateMutability": "nonpayable",
      "type": "function"
    },
    {
      "inputs": [],
      "name": "marketplace",
      "outputs": [
        {
          "internalType": "address",
          "name": "",
          "type": "address"
        }
      ],
      "stateMutability": "view",
      "type": "function"
    },
    {
      "inputs": [
        {
          "internalType": "uint256",
          "name": "_amount",
          "type": "uint256"
        },
        {
          "internalType": "string",
          "name": "_uri",
          "type": "string"
        },
        {
          "internalType": "bytes",
          "name": "_data",
          "type": "bytes"
        }
      ],
      "name": "mint",
      "outputs": [],
      "stateMutability": "nonpayable",
      "type": "function"
    },
    {
      "inputs": [],
      "name": "name",
      "outputs": [
        {
          "internalType": "string",
          "name": "",
          "type": "string"
        }
      ],
      "stateMutability": "view",
      "type": "function"
    },
    {
      "inputs": [
        {
          "internalType": "address",
          "name": "from",
          "type": "address"
        },
        {
          "internalType": "address",
          "name": "to",
          "type": "address"
        },
        {
          "internalType": "uint256[]",
          "name": "ids",
          "type": "uint256[]"
        },
        {
          "internalType": "uint256[]",
          "name": "amounts",
          "type": "uint256[]"
        },
        {
          "internalType": "bytes",
          "name": "data",
          "type": "bytes"
        }
      ],
      "name": "safeBatchTransferFrom",
      "outputs": [],
      "stateMutability": "nonpayable",
      "type": "function"
    },
    {
      "inputs": [
        {
          "internalType": "address",
          "name": "from",
          "type": "address"
        },
        {
          "internalType": "address",
          "name": "to",
          "type": "address"
        },
        {
          "internalType": "uint256",
          "name": "id",
          "type": "uint256"
        },
        {
          "internalType": "uint256",
          "name": "amount",
          "type": "uint256"
        },
        {
          "internalType": "bytes",
          "name": "data",
          "type": "bytes"
        }
      ],
      "name": "safeTransferFrom",
      "outputs": [],
      "stateMutability": "nonpayable",
      "type": "function"
    },
    {
      "inputs": [
        {
          "internalType": "address",
          "name": "operator",
          "type": "address"
        },
        {
          "internalType": "bool",
          "name": "approved",
          "type": "bool"
        }
      ],
      "name": "setApprovalForAll",
      "outputs": [],
      "stateMutability": "nonpayable",
      "type": "function"
    },
    {
      "inputs": [
        {
          "internalType": "bytes4",
          "name": "interfaceId",
          "type": "bytes4"
        }
      ],
      "name": "supportsInterface",
      "outputs": [
        {
          "internalType": "bool",
          "name": "",
          "type": "bool"
        }
      ],
      "stateMutability": "view",
      "type": "function"
    },
    {
      "inputs": [],
      "name": "tokenIds",
      "outputs": [
        {
          "internalType": "uint256",
          "name": "_value",
          "type": "uint256"
        }
      ],
      "stateMutability": "view",
      "type": "function"
    },
    {
      "inputs": [
        {
          "internalType": "uint256",
          "name": "_tokenId",
          "type": "uint256"
        }
      ],
      "name": "uri",
      "outputs": [
        {
          "internalType": "string",
          "name": "",
          "type": "string"
        }
      ],
      "stateMutability": "view",
      "type": "function"
    }
  ],
  "bytecode": "0x60806040526040518060400160405280600881526020017f4b4841415354454800000000000000000000000000000000000000000000000081525060069080519060200190620000519291906200010b565b503480156200005f57600080fd5b5060405162002f3238038062002f32833981810160405281019062000085919062000225565b60405180602001604052806000815250620000a681620000ef60201b60201c565b5080600760006101000a81548173ffffffffffffffffffffffffffffffffffffffff021916908373ffffffffffffffffffffffffffffffffffffffff16021790555050620002bc565b8060029080519060200190620001079291906200010b565b5050565b828054620001199062000286565b90600052602060002090601f0160209004810192826200013d576000855562000189565b82601f106200015857805160ff191683800117855562000189565b8280016001018555821562000189579182015b82811115620001885782518255916020019190600101906200016b565b5b5090506200019891906200019c565b5090565b5b80821115620001b75760008160009055506001016200019d565b5090565b600080fd5b600073ffffffffffffffffffffffffffffffffffffffff82169050919050565b6000620001ed82620001c0565b9050919050565b620001ff81620001e0565b81146200020b57600080fd5b50565b6000815190506200021f81620001f4565b92915050565b6000602082840312156200023e576200023d620001bb565b5b60006200024e848285016200020e565b91505092915050565b7f4e487b7100000000000000000000000000000000000000000000000000000000600052602260045260246000fd5b600060028204905060018216806200029f57607f821691505b60208210811415620002b657620002b562000257565b5b50919050565b612c6680620002cc6000396000f3fe608060405234801561001057600080fd5b50600436106100e95760003560e01c8063785cc9971161008c578063a22cb46511610066578063a22cb4651461026e578063abc8c7af1461028a578063e985e9c5146102a8578063f242432a146102d8576100e9565b8063785cc997146102065780637a1157601461022257806380c9419e14610252576100e9565b80630e89341c116100c85780630e89341c1461016c5780632eb2c2d61461019c5780634e1273f4146101b8578063714cff56146101e8576100e9565b8062fdd58e146100ee57806301ffc9a71461011e57806306fdde031461014e575b600080fd5b61010860048036038101906101039190611913565b6102f4565b6040516101159190611962565b60405180910390f35b610138600480360381019061013391906119d5565b6103bd565b6040516101459190611a1d565b60405180910390f35b61015661049f565b6040516101639190611ad1565b60405180910390f35b61018660048036038101906101819190611af3565b61052d565b6040516101939190611ad1565b60405180910390f35b6101b660048036038101906101b19190611d1d565b6105d2565b005b6101d260048036038101906101cd9190611eaf565b610673565b6040516101df9190611fe5565b60405180910390f35b6101f061078c565b6040516101fd9190611962565b60405180910390f35b610220600480360381019061021b91906120a8565b610798565b005b61023c60048036038101906102379190611af3565b610802565b6040516102499190611962565b60405180910390f35b61026c60048036038101906102679190611af3565b61081a565b005b6102886004803603810190610283919061215f565b61086a565b005b610292610880565b60405161029f91906121ae565b60405180910390f35b6102c260048036038101906102bd91906121c9565b6108a6565b6040516102cf9190611a1d565b60405180910390f35b6102f260048036038101906102ed9190612209565b61093a565b005b60008073ffffffffffffffffffffffffffffffffffffffff168373ffffffffffffffffffffffffffffffffffffffff161415610365576040517f08c379a000000000000000000000000000000000000000000000000000000000815260040161035c90612312565b60405180910390fd5b60008083815260200190815260200160002060008473ffffffffffffffffffffffffffffffffffffffff1673ffffffffffffffffffffffffffffffffffffffff16815260200190815260200160002054905092915050565b60007fd9b67a26000000000000000000000000000000000000000000000000000000007bffffffffffffffffffffffffffffffffffffffffffffffffffffffff1916827bffffffffffffffffffffffffffffffffffffffffffffffffffffffff1916148061048857507f0e89341c000000000000000000000000000000000000000000000000000000007bffffffffffffffffffffffffffffffffffffffffffffffffffffffff1916827bffffffffffffffffffffffffffffffffffffffffffffffffffffffff1916145b806104985750610497826109db565b5b9050919050565b600680546104ac90612361565b80601f01602080910402602001604051908101604052809291908181526020018280546104d890612361565b80156105255780601f106104fa57610100808354040283529160200191610525565b820191906000526020600020905b81548152906001019060200180831161050857829003601f168201915b505050505081565b606060056000838152602001908152602001600020805461054d90612361565b80601f016020809104026020016040519081016040528092919081815260200182805461057990612361565b80156105c65780601f1061059b576101008083540402835291602001916105c6565b820191906000526020600020905b8154815290600101906020018083116105a957829003601f168201915b50505050509050919050565b6105da610a45565b73ffffffffffffffffffffffffffffffffffffffff168573ffffffffffffffffffffffffffffffffffffffff161480610620575061061f8561061a610a45565b6108a6565b5b61065f576040517f08c379a000000000000000000000000000000000000000000000000000000000815260040161065690612405565b60405180910390fd5b61066c8585858585610a4d565b5050505050565b606081518351146106b9576040517f08c379a00000000000000000000000000000000000000000000000000000000081526004016106b090612497565b60405180910390fd5b6000835167ffffffffffffffff8111156106d6576106d5611b25565b5b6040519080825280602002602001820160405280156107045781602001602082028036833780820191505090505b50905060005b845181101561078157610751858281518110610729576107286124b7565b5b6020026020010151858381518110610744576107436124b7565b5b60200260200101516102f4565b828281518110610764576107636124b7565b5b6020026020010181815250508061077a90612515565b905061070a565b508091505092915050565b60038060000154905081565b60006107a46003610d6f565b90506107b233828685610d7d565b836004600083815260200190815260200160002081905550826005600083815260200190815260200160002090805190602001906107f19291906117c8565b506107fc6003610f2e565b50505050565b60046020528060005260406000206000915090505481565b600061082633836102f4565b905061086633600760009054906101000a900473ffffffffffffffffffffffffffffffffffffffff1684846040518060200160405280600081525061093a565b5050565b61087c610875610a45565b8383610f44565b5050565b600760009054906101000a900473ffffffffffffffffffffffffffffffffffffffff1681565b6000600160008473ffffffffffffffffffffffffffffffffffffffff1673ffffffffffffffffffffffffffffffffffffffff16815260200190815260200160002060008373ffffffffffffffffffffffffffffffffffffffff1673ffffffffffffffffffffffffffffffffffffffff16815260200190815260200160002060009054906101000a900460ff16905092915050565b610942610a45565b73ffffffffffffffffffffffffffffffffffffffff168573ffffffffffffffffffffffffffffffffffffffff161480610988575061098785610982610a45565b6108a6565b5b6109c7576040517f08c379a00000000000000000000000000000000000000000000000000000000081526004016109be90612405565b60405180910390fd5b6109d485858585856110b1565b5050505050565b60007f01ffc9a7000000000000000000000000000000000000000000000000000000007bffffffffffffffffffffffffffffffffffffffffffffffffffffffff1916827bffffffffffffffffffffffffffffffffffffffffffffffffffffffff1916149050919050565b600033905090565b8151835114610a91576040517f08c379a0000000000000000000000000000000000000000000000000000000008152600401610a88906125d0565b60405180910390fd5b600073ffffffffffffffffffffffffffffffffffffffff168473ffffffffffffffffffffffffffffffffffffffff161415610b01576040517f08c379a0000000000000000000000000000000000000000000000000000000008152600401610af890612662565b60405180910390fd5b6000610b0b610a45565b9050610b1b81878787878761134d565b60005b8451811015610ccc576000858281518110610b3c57610b3b6124b7565b5b602002602001015190506000858381518110610b5b57610b5a6124b7565b5b60200260200101519050600080600084815260200190815260200160002060008b73ffffffffffffffffffffffffffffffffffffffff1673ffffffffffffffffffffffffffffffffffffffff16815260200190815260200160002054905081811015610bfc576040517f08c379a0000000000000000000000000000000000000000000000000000000008152600401610bf3906126f4565b60405180910390fd5b81810360008085815260200190815260200160002060008c73ffffffffffffffffffffffffffffffffffffffff1673ffffffffffffffffffffffffffffffffffffffff168152602001908152602001600020819055508160008085815260200190815260200160002060008b73ffffffffffffffffffffffffffffffffffffffff1673ffffffffffffffffffffffffffffffffffffffff1681526020019081526020016000206000828254610cb19190612714565b9250508190555050505080610cc590612515565b9050610b1e565b508473ffffffffffffffffffffffffffffffffffffffff168673ffffffffffffffffffffffffffffffffffffffff168273ffffffffffffffffffffffffffffffffffffffff167f4a39dc06d4c0dbc64b70af90fd698a233a518aa5d07e595d983b8c0526c8f7fb8787604051610d4392919061276a565b60405180910390a4610d59818787878787611355565b610d6781878787878761135d565b505050505050565b600081600001549050919050565b600073ffffffffffffffffffffffffffffffffffffffff168473ffffffffffffffffffffffffffffffffffffffff161415610ded576040517f08c379a0000000000000000000000000000000000000000000000000000000008152600401610de490612813565b60405180910390fd5b6000610df7610a45565b90506000610e0485611544565b90506000610e1185611544565b9050610e228360008985858961134d565b8460008088815260200190815260200160002060008973ffffffffffffffffffffffffffffffffffffffff1673ffffffffffffffffffffffffffffffffffffffff1681526020019081526020016000206000828254610e819190612714565b925050819055508673ffffffffffffffffffffffffffffffffffffffff16600073ffffffffffffffffffffffffffffffffffffffff168473ffffffffffffffffffffffffffffffffffffffff167fc3d58168c5ae7397731d063d5bbf3d657854427343f4c083240f7aacaa2d0f628989604051610eff929190612833565b60405180910390a4610f1683600089858589611355565b610f25836000898989896115be565b50505050505050565b6001816000016000828254019250508190555050565b8173ffffffffffffffffffffffffffffffffffffffff168373ffffffffffffffffffffffffffffffffffffffff161415610fb3576040517f08c379a0000000000000000000000000000000000000000000000000000000008152600401610faa906128ce565b60405180910390fd5b80600160008573ffffffffffffffffffffffffffffffffffffffff1673ffffffffffffffffffffffffffffffffffffffff16815260200190815260200160002060008473ffffffffffffffffffffffffffffffffffffffff1673ffffffffffffffffffffffffffffffffffffffff16815260200190815260200160002060006101000a81548160ff0219169083151502179055508173ffffffffffffffffffffffffffffffffffffffff168373ffffffffffffffffffffffffffffffffffffffff167f17307eab39ab6107e8899845ad3d59bd9653f200f220920489ca2b5937696c31836040516110a49190611a1d565b60405180910390a3505050565b600073ffffffffffffffffffffffffffffffffffffffff168473ffffffffffffffffffffffffffffffffffffffff161415611121576040517f08c379a000000000000000000000000000000000000000000000000000000000815260040161111890612662565b60405180910390fd5b600061112b610a45565b9050600061113885611544565b9050600061114585611544565b905061115583898985858961134d565b600080600088815260200190815260200160002060008a73ffffffffffffffffffffffffffffffffffffffff1673ffffffffffffffffffffffffffffffffffffffff168152602001908152602001600020549050858110156111ec576040517f08c379a00000000000000000000000000000000000000000000000000000000081526004016111e3906126f4565b60405180910390fd5b85810360008089815260200190815260200160002060008b73ffffffffffffffffffffffffffffffffffffffff1673ffffffffffffffffffffffffffffffffffffffff168152602001908152602001600020819055508560008089815260200190815260200160002060008a73ffffffffffffffffffffffffffffffffffffffff1673ffffffffffffffffffffffffffffffffffffffff16815260200190815260200160002060008282546112a19190612714565b925050819055508773ffffffffffffffffffffffffffffffffffffffff168973ffffffffffffffffffffffffffffffffffffffff168573ffffffffffffffffffffffffffffffffffffffff167fc3d58168c5ae7397731d063d5bbf3d657854427343f4c083240f7aacaa2d0f628a8a60405161131e929190612833565b60405180910390a4611334848a8a86868a611355565b611342848a8a8a8a8a6115be565b505050505050505050565b505050505050565b505050505050565b61137c8473ffffffffffffffffffffffffffffffffffffffff166117a5565b1561153c578373ffffffffffffffffffffffffffffffffffffffff1663bc197c8187878686866040518663ffffffff1660e01b81526004016113c2959493929190612943565b602060405180830381600087803b1580156113dc57600080fd5b505af192505050801561140d57506040513d601f19601f8201168201806040525081019061140a91906129c0565b60015b6114b3576114196129fa565b806308c379a01415611476575061142e612a1c565b806114395750611478565b806040517f08c379a000000000000000000000000000000000000000000000000000000000815260040161146d9190611ad1565b60405180910390fd5b505b6040517f08c379a00000000000000000000000000000000000000000000000000000000081526004016114aa90612b24565b60405180910390fd5b63bc197c8160e01b7bffffffffffffffffffffffffffffffffffffffffffffffffffffffff1916817bffffffffffffffffffffffffffffffffffffffffffffffffffffffff19161461153a576040517f08c379a000000000000000000000000000000000000000000000000000000000815260040161153190612bb6565b60405180910390fd5b505b505050505050565b60606000600167ffffffffffffffff81111561156357611562611b25565b5b6040519080825280602002602001820160405280156115915781602001602082028036833780820191505090505b50905082816000815181106115a9576115a86124b7565b5b60200260200101818152505080915050919050565b6115dd8473ffffffffffffffffffffffffffffffffffffffff166117a5565b1561179d578373ffffffffffffffffffffffffffffffffffffffff1663f23a6e6187878686866040518663ffffffff1660e01b8152600401611623959493929190612bd6565b602060405180830381600087803b15801561163d57600080fd5b505af192505050801561166e57506040513d601f19601f8201168201806040525081019061166b91906129c0565b60015b6117145761167a6129fa565b806308c379a014156116d7575061168f612a1c565b8061169a57506116d9565b806040517f08c379a00000000000000000000000000000000000000000000000000000000081526004016116ce9190611ad1565b60405180910390fd5b505b6040517f08c379a000000000000000000000000000000000000000000000000000000000815260040161170b90612b24565b60405180910390fd5b63f23a6e6160e01b7bffffffffffffffffffffffffffffffffffffffffffffffffffffffff1916817bffffffffffffffffffffffffffffffffffffffffffffffffffffffff19161461179b576040517f08c379a000000000000000000000000000000000000000000000000000000000815260040161179290612bb6565b60405180910390fd5b505b505050505050565b6000808273ffffffffffffffffffffffffffffffffffffffff163b119050919050565b8280546117d490612361565b90600052602060002090601f0160209004810192826117f6576000855561183d565b82601f1061180f57805160ff191683800117855561183d565b8280016001018555821561183d579182015b8281111561183c578251825591602001919060010190611821565b5b50905061184a919061184e565b5090565b5b8082111561186757600081600090555060010161184f565b5090565b6000604051905090565b600080fd5b600080fd5b600073ffffffffffffffffffffffffffffffffffffffff82169050919050565b60006118aa8261187f565b9050919050565b6118ba8161189f565b81146118c557600080fd5b50565b6000813590506118d7816118b1565b92915050565b6000819050919050565b6118f0816118dd565b81146118fb57600080fd5b50565b60008135905061190d816118e7565b92915050565b6000806040838503121561192a57611929611875565b5b6000611938858286016118c8565b9250506020611949858286016118fe565b9150509250929050565b61195c816118dd565b82525050565b60006020820190506119776000830184611953565b92915050565b60007fffffffff0000000000000000000000000000000000000000000000000000000082169050919050565b6119b28161197d565b81146119bd57600080fd5b50565b6000813590506119cf816119a9565b92915050565b6000602082840312156119eb576119ea611875565b5b60006119f9848285016119c0565b91505092915050565b60008115159050919050565b611a1781611a02565b82525050565b6000602082019050611a326000830184611a0e565b92915050565b600081519050919050565b600082825260208201905092915050565b60005b83811015611a72578082015181840152602081019050611a57565b83811115611a81576000848401525b50505050565b6000601f19601f8301169050919050565b6000611aa382611a38565b611aad8185611a43565b9350611abd818560208601611a54565b611ac681611a87565b840191505092915050565b60006020820190508181036000830152611aeb8184611a98565b905092915050565b600060208284031215611b0957611b08611875565b5b6000611b17848285016118fe565b91505092915050565b600080fd5b7f4e487b7100000000000000000000000000000000000000000000000000000000600052604160045260246000fd5b611b5d82611a87565b810181811067ffffffffffffffff82111715611b7c57611b7b611b25565b5b80604052505050565b6000611b8f61186b565b9050611b9b8282611b54565b919050565b600067ffffffffffffffff821115611bbb57611bba611b25565b5b602082029050602081019050919050565b600080fd5b6000611be4611bdf84611ba0565b611b85565b90508083825260208201905060208402830185811115611c0757611c06611bcc565b5b835b81811015611c305780611c1c88826118fe565b845260208401935050602081019050611c09565b5050509392505050565b600082601f830112611c4f57611c4e611b20565b5b8135611c5f848260208601611bd1565b91505092915050565b600080fd5b600067ffffffffffffffff821115611c8857611c87611b25565b5b611c9182611a87565b9050602081019050919050565b82818337600083830152505050565b6000611cc0611cbb84611c6d565b611b85565b905082815260208101848484011115611cdc57611cdb611c68565b5b611ce7848285611c9e565b509392505050565b600082601f830112611d0457611d03611b20565b5b8135611d14848260208601611cad565b91505092915050565b600080600080600060a08688031215611d3957611d38611875565b5b6000611d47888289016118c8565b9550506020611d58888289016118c8565b945050604086013567ffffffffffffffff811115611d7957611d7861187a565b5b611d8588828901611c3a565b935050606086013567ffffffffffffffff811115611da657611da561187a565b5b611db288828901611c3a565b925050608086013567ffffffffffffffff811115611dd357611dd261187a565b5b611ddf88828901611cef565b9150509295509295909350565b600067ffffffffffffffff821115611e0757611e06611b25565b5b602082029050602081019050919050565b6000611e2b611e2684611dec565b611b85565b90508083825260208201905060208402830185811115611e4e57611e4d611bcc565b5b835b81811015611e775780611e6388826118c8565b845260208401935050602081019050611e50565b5050509392505050565b600082601f830112611e9657611e95611b20565b5b8135611ea6848260208601611e18565b91505092915050565b60008060408385031215611ec657611ec5611875565b5b600083013567ffffffffffffffff811115611ee457611ee361187a565b5b611ef085828601611e81565b925050602083013567ffffffffffffffff811115611f1157611f1061187a565b5b611f1d85828601611c3a565b9150509250929050565b600081519050919050565b600082825260208201905092915050565b6000819050602082019050919050565b611f5c816118dd565b82525050565b6000611f6e8383611f53565b60208301905092915050565b6000602082019050919050565b6000611f9282611f27565b611f9c8185611f32565b9350611fa783611f43565b8060005b83811015611fd8578151611fbf8882611f62565b9750611fca83611f7a565b925050600181019050611fab565b5085935050505092915050565b60006020820190508181036000830152611fff8184611f87565b905092915050565b600067ffffffffffffffff82111561202257612021611b25565b5b61202b82611a87565b9050602081019050919050565b600061204b61204684612007565b611b85565b90508281526020810184848401111561206757612066611c68565b5b612072848285611c9e565b509392505050565b600082601f83011261208f5761208e611b20565b5b813561209f848260208601612038565b91505092915050565b6000806000606084860312156120c1576120c0611875565b5b60006120cf868287016118fe565b935050602084013567ffffffffffffffff8111156120f0576120ef61187a565b5b6120fc8682870161207a565b925050604084013567ffffffffffffffff81111561211d5761211c61187a565b5b61212986828701611cef565b9150509250925092565b61213c81611a02565b811461214757600080fd5b50565b60008135905061215981612133565b92915050565b6000806040838503121561217657612175611875565b5b6000612184858286016118c8565b92505060206121958582860161214a565b9150509250929050565b6121a88161189f565b82525050565b60006020820190506121c3600083018461219f565b92915050565b600080604083850312156121e0576121df611875565b5b60006121ee858286016118c8565b92505060206121ff858286016118c8565b9150509250929050565b600080600080600060a0868803121561222557612224611875565b5b6000612233888289016118c8565b9550506020612244888289016118c8565b9450506040612255888289016118fe565b9350506060612266888289016118fe565b925050608086013567ffffffffffffffff8111156122875761228661187a565b5b61229388828901611cef565b9150509295509295909350565b7f455243313135353a2061646472657373207a65726f206973206e6f742061207660008201527f616c6964206f776e657200000000000000000000000000000000000000000000602082015250565b60006122fc602a83611a43565b9150612307826122a0565b604082019050919050565b6000602082019050818103600083015261232b816122ef565b9050919050565b7f4e487b7100000000000000000000000000000000000000000000000000000000600052602260045260246000fd5b6000600282049050600182168061237957607f821691505b6020821081141561238d5761238c612332565b5b50919050565b7f455243313135353a2063616c6c6572206973206e6f7420746f6b656e206f776e60008201527f6572206f7220617070726f766564000000000000000000000000000000000000602082015250565b60006123ef602e83611a43565b91506123fa82612393565b604082019050919050565b6000602082019050818103600083015261241e816123e2565b9050919050565b7f455243313135353a206163636f756e747320616e6420696473206c656e67746860008201527f206d69736d617463680000000000000000000000000000000000000000000000602082015250565b6000612481602983611a43565b915061248c82612425565b604082019050919050565b600060208201905081810360008301526124b081612474565b9050919050565b7f4e487b7100000000000000000000000000000000000000000000000000000000600052603260045260246000fd5b7f4e487b7100000000000000000000000000000000000000000000000000000000600052601160045260246000fd5b6000612520826118dd565b91507fffffffffffffffffffffffffffffffffffffffffffffffffffffffffffffffff821415612553576125526124e6565b5b600182019050919050565b7f455243313135353a2069647320616e6420616d6f756e7473206c656e6774682060008201527f6d69736d61746368000000000000000000000000000000000000000000000000602082015250565b60006125ba602883611a43565b91506125c58261255e565b604082019050919050565b600060208201905081810360008301526125e9816125ad565b9050919050565b7f455243313135353a207472616e7366657220746f20746865207a65726f20616460008201527f6472657373000000000000000000000000000000000000000000000000000000602082015250565b600061264c602583611a43565b9150612657826125f0565b604082019050919050565b6000602082019050818103600083015261267b8161263f565b9050919050565b7f455243313135353a20696e73756666696369656e742062616c616e636520666f60008201527f72207472616e7366657200000000000000000000000000000000000000000000602082015250565b60006126de602a83611a43565b91506126e982612682565b604082019050919050565b6000602082019050818103600083015261270d816126d1565b9050919050565b600061271f826118dd565b915061272a836118dd565b9250827fffffffffffffffffffffffffffffffffffffffffffffffffffffffffffffffff0382111561275f5761275e6124e6565b5b828201905092915050565b600060408201905081810360008301526127848185611f87565b905081810360208301526127988184611f87565b90509392505050565b7f455243313135353a206d696e7420746f20746865207a65726f2061646472657360008201527f7300000000000000000000000000000000000000000000000000000000000000602082015250565b60006127fd602183611a43565b9150612808826127a1565b604082019050919050565b6000602082019050818103600083015261282c816127f0565b9050919050565b60006040820190506128486000830185611953565b6128556020830184611953565b9392505050565b7f455243313135353a2073657474696e6720617070726f76616c2073746174757360008201527f20666f722073656c660000000000000000000000000000000000000000000000602082015250565b60006128b8602983611a43565b91506128c38261285c565b604082019050919050565b600060208201905081810360008301526128e7816128ab565b9050919050565b600081519050919050565b600082825260208201905092915050565b6000612915826128ee565b61291f81856128f9565b935061292f818560208601611a54565b61293881611a87565b840191505092915050565b600060a082019050612958600083018861219f565b612965602083018761219f565b81810360408301526129778186611f87565b9050818103606083015261298b8185611f87565b9050818103608083015261299f818461290a565b90509695505050505050565b6000815190506129ba816119a9565b92915050565b6000602082840312156129d6576129d5611875565b5b60006129e4848285016129ab565b91505092915050565b60008160e01c9050919050565b600060033d1115612a195760046000803e612a166000516129ed565b90505b90565b600060443d1015612a2c57612aaf565b612a3461186b565b60043d036004823e80513d602482011167ffffffffffffffff82111715612a5c575050612aaf565b808201805167ffffffffffffffff811115612a7a5750505050612aaf565b80602083010160043d038501811115612a97575050505050612aaf565b612aa682602001850186611b54565b82955050505050505b90565b7f455243313135353a207472616e7366657220746f206e6f6e2d4552433131353560008201527f526563656976657220696d706c656d656e746572000000000000000000000000602082015250565b6000612b0e603483611a43565b9150612b1982612ab2565b604082019050919050565b60006020820190508181036000830152612b3d81612b01565b9050919050565b7f455243313135353a204552433131353552656365697665722072656a6563746560008201527f6420746f6b656e73000000000000000000000000000000000000000000000000602082015250565b6000612ba0602883611a43565b9150612bab82612b44565b604082019050919050565b60006020820190508181036000830152612bcf81612b93565b9050919050565b600060a082019050612beb600083018861219f565b612bf8602083018761219f565b612c056040830186611953565b612c126060830185611953565b8181036080830152612c24818461290a565b9050969550505050505056fea2646970667358221220a5abe9e10b07f83d1164e1bb18140e98657c31afb28f37cab5aad66bc0c8895c64736f6c63430008090033",
  "linkReferences": {},
  "deployedLinkReferences": {}
}