{
  "_format": "hh-sol-artifact-1",
  "contractName": "Marketplace",
  "sourceName": "contracts/Marketplace.sol",
  "abi": [
    {
      "anonymous": false,
      "inputs": [
        {
          "indexed": true,
          "internalType": "uint256",
          "name": "itemId",
          "type": "uint256"
        },
        {
          "indexed": true,
          "internalType": "address",
          "name": "nftContract",
          "type": "address"
        },
        {
          "indexed": true,
          "internalType": "uint256",
          "name": "tokenId",
          "type": "uint256"
        },
        {
          "indexed": false,
          "internalType": "uint256",
          "name": "amount",
          "type": "uint256"
        },
        {
          "indexed": false,
          "internalType": "address",
          "name": "seller",
          "type": "address"
        },
        {
          "indexed": false,
          "internalType": "address",
          "name": "owner",
          "type": "address"
        },
        {
          "indexed": false,
          "internalType": "uint256",
          "name": "price",
          "type": "uint256"
        },
        {
          "indexed": false,
          "internalType": "bool",
          "name": "sold",
          "type": "bool"
        }
      ],
      "name": "MarketItemCreated",
      "type": "event"
    },
    {
      "inputs": [
        {
          "internalType": "address",
          "name": "_nftContract",
          "type": "address"
        },
        {
          "internalType": "uint256",
          "name": "_tokenId",
          "type": "uint256"
        },
        {
          "internalType": "uint256",
          "name": "_amount",
          "type": "uint256"
        },
        {
          "internalType": "uint256",
          "name": "_price",
          "type": "uint256"
        }
      ],
      "name": "createMarketItem",
      "outputs": [],
      "stateMutability": "nonpayable",
      "type": "function"
    },
    {
      "inputs": [
        {
          "internalType": "address",
          "name": "_nftContract",
          "type": "address"
        },
        {
          "internalType": "uint256",
          "name": "_itemId",
          "type": "uint256"
        }
      ],
      "name": "createMarketSale",
      "outputs": [],
      "stateMutability": "payable",
      "type": "function"
    },
    {
      "inputs": [],
      "name": "fetchItemsCreated",
      "outputs": [
        {
          "components": [
            {
              "internalType": "uint256",
              "name": "itemId",
              "type": "uint256"
            },
            {
              "internalType": "address",
              "name": "nftContract",
              "type": "address"
            },
            {
              "internalType": "uint256",
              "name": "tokenId",
              "type": "uint256"
            },
            {
              "internalType": "uint256",
              "name": "amount",
              "type": "uint256"
            },
            {
              "internalType": "address payable",
              "name": "seller",
              "type": "address"
            },
            {
              "internalType": "address payable",
              "name": "owner",
              "type": "address"
            },
            {
              "internalType": "uint256",
              "name": "price",
              "type": "uint256"
            },
            {
              "internalType": "bool",
              "name": "sold",
              "type": "bool"
            }
          ],
          "internalType": "struct Marketplace.MarketItem[]",
          "name": "",
          "type": "tuple[]"
        }
      ],
      "stateMutability": "view",
      "type": "function"
    },
    {
      "inputs": [],
      "name": "fetchMarketItems",
      "outputs": [
        {
          "components": [
            {
              "internalType": "uint256",
              "name": "itemId",
              "type": "uint256"
            },
            {
              "internalType": "address",
              "name": "nftContract",
              "type": "address"
            },
            {
              "internalType": "uint256",
              "name": "tokenId",
              "type": "uint256"
            },
            {
              "internalType": "uint256",
              "name": "amount",
              "type": "uint256"
            },
            {
              "internalType": "address payable",
              "name": "seller",
              "type": "address"
            },
            {
              "internalType": "address payable",
              "name": "owner",
              "type": "address"
            },
            {
              "internalType": "uint256",
              "name": "price",
              "type": "uint256"
            },
            {
              "internalType": "bool",
              "name": "sold",
              "type": "bool"
            }
          ],
          "internalType": "struct Marketplace.MarketItem[]",
          "name": "",
          "type": "tuple[]"
        }
      ],
      "stateMutability": "view",
      "type": "function"
    },
    {
      "inputs": [],
      "name": "fetchMyNFTs",
      "outputs": [
        {
          "components": [
            {
              "internalType": "uint256",
              "name": "itemId",
              "type": "uint256"
            },
            {
              "internalType": "address",
              "name": "nftContract",
              "type": "address"
            },
            {
              "internalType": "uint256",
              "name": "tokenId",
              "type": "uint256"
            },
            {
              "internalType": "uint256",
              "name": "amount",
              "type": "uint256"
            },
            {
              "internalType": "address payable",
              "name": "seller",
              "type": "address"
            },
            {
              "internalType": "address payable",
              "name": "owner",
              "type": "address"
            },
            {
              "internalType": "uint256",
              "name": "price",
              "type": "uint256"
            },
            {
              "internalType": "bool",
              "name": "sold",
              "type": "bool"
            }
          ],
          "internalType": "struct Marketplace.MarketItem[]",
          "name": "",
          "type": "tuple[]"
        }
      ],
      "stateMutability": "view",
      "type": "function"
    },
    {
      "inputs": [
        {
          "internalType": "address",
          "name": "",
          "type": "address"
        },
        {
          "internalType": "address",
          "name": "",
          "type": "address"
        },
        {
          "internalType": "uint256",
          "name": "",
          "type": "uint256"
        },
        {
          "internalType": "uint256",
          "name": "",
          "type": "uint256"
        },
        {
          "internalType": "bytes",
          "name": "",
          "type": "bytes"
        }
      ],
      "name": "onERC1155Received",
      "outputs": [
        {
          "internalType": "bytes4",
          "name": "",
          "type": "bytes4"
        }
      ],
      "stateMutability": "nonpayable",
      "type": "function"
    }
  ],
  "bytecode": "0x608060405234801561001057600080fd5b506001600081905550611a0d806100286000396000f3fe6080604052600436106100555760003560e01c80630f08efe01461005a578063202e374014610085578063599ba234146100b0578063c23b139e146100d9578063f064c32e146100f5578063f23a6e6114610120575b600080fd5b34801561006657600080fd5b5061006f61015d565b60405161007c91906112fa565b60405180910390f35b34801561009157600080fd5b5061009a610448565b6040516100a791906112fa565b60405180910390f35b3480156100bc57600080fd5b506100d760048036038101906100d29190611388565b6107b7565b005b6100f360048036038101906100ee91906113ef565b610a64565b005b34801561010157600080fd5b5061010a610c8a565b60405161011791906112fa565b60405180910390f35b34801561012c57600080fd5b5061014760048036038101906101429190611575565b610ff6565b6040516101549190611647565b60405180910390f35b6060600061016b600161100b565b90506000610179600261100b565b610183600161100b565b61018d9190611691565b90506000808267ffffffffffffffff8111156101ac576101ab61144a565b5b6040519080825280602002602001820160405280156101e557816020015b6101d2611089565b8152602001906001900390816101ca5790505b50905060005b8481101561043d57600073ffffffffffffffffffffffffffffffffffffffff166003600060018461021c91906116c5565b815260200190815260200160002060050160009054906101000a900473ffffffffffffffffffffffffffffffffffffffff1673ffffffffffffffffffffffffffffffffffffffff16141561042a5760006003600060018461027d91906116c5565b815260200190815260200160002060000154905060006003600083815260200190815260200160002090508060405180610100016040529081600082015481526020016001820160009054906101000a900473ffffffffffffffffffffffffffffffffffffffff1673ffffffffffffffffffffffffffffffffffffffff1673ffffffffffffffffffffffffffffffffffffffff16815260200160028201548152602001600382015481526020016004820160009054906101000a900473ffffffffffffffffffffffffffffffffffffffff1673ffffffffffffffffffffffffffffffffffffffff1673ffffffffffffffffffffffffffffffffffffffff1681526020016005820160009054906101000a900473ffffffffffffffffffffffffffffffffffffffff1673ffffffffffffffffffffffffffffffffffffffff1673ffffffffffffffffffffffffffffffffffffffff168152602001600682015481526020016007820160009054906101000a900460ff16151515158152505084868151811061040d5761040c61171b565b5b602002602001018190525060018561042591906116c5565b945050505b80806104359061174a565b9150506101eb565b508094505050505090565b60606000610456600161100b565b905060008060005b838110156104ff573373ffffffffffffffffffffffffffffffffffffffff166003600060018461048e91906116c5565b815260200190815260200160002060050160009054906101000a900473ffffffffffffffffffffffffffffffffffffffff1673ffffffffffffffffffffffffffffffffffffffff1614156104ec576001836104e991906116c5565b92505b80806104f79061174a565b91505061045e565b5060008267ffffffffffffffff81111561051c5761051b61144a565b5b60405190808252806020026020018201604052801561055557816020015b610542611089565b81526020019060019003908161053a5790505b50905060005b848110156107ac573373ffffffffffffffffffffffffffffffffffffffff166003600060018461058b91906116c5565b815260200190815260200160002060050160009054906101000a900473ffffffffffffffffffffffffffffffffffffffff1673ffffffffffffffffffffffffffffffffffffffff161415610799576000600360006001846105ec91906116c5565b815260200190815260200160002060000154905060006003600083815260200190815260200160002090508060405180610100016040529081600082015481526020016001820160009054906101000a900473ffffffffffffffffffffffffffffffffffffffff1673ffffffffffffffffffffffffffffffffffffffff1673ffffffffffffffffffffffffffffffffffffffff16815260200160028201548152602001600382015481526020016004820160009054906101000a900473ffffffffffffffffffffffffffffffffffffffff1673ffffffffffffffffffffffffffffffffffffffff1673ffffffffffffffffffffffffffffffffffffffff1681526020016005820160009054906101000a900473ffffffffffffffffffffffffffffffffffffffff1673ffffffffffffffffffffffffffffffffffffffff1673ffffffffffffffffffffffffffffffffffffffff168152602001600682015481526020016007820160009054906101000a900460ff16151515158152505084838151811061077c5761077b61171b565b5b602002602001018190525060018561079491906116c5565b945050505b80806107a49061174a565b91505061055b565b508094505050505090565b6107bf611019565b6107c96001611069565b60006107d5600161100b565b90506040518061010001604052808281526020018673ffffffffffffffffffffffffffffffffffffffff1681526020018581526020018481526020013373ffffffffffffffffffffffffffffffffffffffff168152602001600073ffffffffffffffffffffffffffffffffffffffff16815260200183815260200160001515815250600360008381526020019081526020016000206000820151816000015560208201518160010160006101000a81548173ffffffffffffffffffffffffffffffffffffffff021916908373ffffffffffffffffffffffffffffffffffffffff160217905550604082015181600201556060820151816003015560808201518160040160006101000a81548173ffffffffffffffffffffffffffffffffffffffff021916908373ffffffffffffffffffffffffffffffffffffffff16021790555060a08201518160050160006101000a81548173ffffffffffffffffffffffffffffffffffffffff021916908373ffffffffffffffffffffffffffffffffffffffff16021790555060c0820151816006015560e08201518160070160006101000a81548160ff0219169083151502179055509050508473ffffffffffffffffffffffffffffffffffffffff1663f242432a333087876040518563ffffffff1660e01b81526004016109c994939291906117e8565b600060405180830381600087803b1580156109e357600080fd5b505af11580156109f7573d6000803e3d6000fd5b50505050838573ffffffffffffffffffffffffffffffffffffffff16827f79f8c05bb09c0956360a67fcd99d7cd58b143c2e5965443ccf2238950961eac586336000886000604051610a4d95949392919061184f565b60405180910390a450610a5e61107f565b50505050565b610a6c611019565b600060036000838152602001908152602001600020600601549050600060036000848152602001908152602001600020600201549050600060036000858152602001908152602001600020600301549050823414610aff576040517f08c379a0000000000000000000000000000000000000000000000000000000008152600401610af69061194b565b60405180910390fd5b6003600085815260200190815260200160002060040160009054906101000a900473ffffffffffffffffffffffffffffffffffffffff1673ffffffffffffffffffffffffffffffffffffffff166108fc349081150290604051600060405180830381858888f19350505050158015610b7b573d6000803e3d6000fd5b508473ffffffffffffffffffffffffffffffffffffffff1663f242432a303385856040518563ffffffff1660e01b8152600401610bbb94939291906117e8565b600060405180830381600087803b158015610bd557600080fd5b505af1158015610be9573d6000803e3d6000fd5b50505050336003600086815260200190815260200160002060050160006101000a81548173ffffffffffffffffffffffffffffffffffffffff021916908373ffffffffffffffffffffffffffffffffffffffff16021790555060016003600086815260200190815260200160002060070160006101000a81548160ff021916908315150217905550610c7b6002611069565b505050610c8661107f565b5050565b60606000610c98600161100b565b905060008060005b83811015610d40573373ffffffffffffffffffffffffffffffffffffffff16600360008084610ccf91906116c5565b815260200190815260200160002060040160009054906101000a900473ffffffffffffffffffffffffffffffffffffffff1673ffffffffffffffffffffffffffffffffffffffff161415610d2d57600183610d2a91906116c5565b92505b8080610d389061174a565b915050610ca0565b5060008267ffffffffffffffff811115610d5d57610d5c61144a565b5b604051908082528060200260200182016040528015610d9657816020015b610d83611089565b815260200190600190039081610d7b5790505b50905060005b84811015610feb573373ffffffffffffffffffffffffffffffffffffffff16600360008084610dcb91906116c5565b815260200190815260200160002060040160009054906101000a900473ffffffffffffffffffffffffffffffffffffffff1673ffffffffffffffffffffffffffffffffffffffff161415610fd8576000600360008084610e2b91906116c5565b815260200190815260200160002060000154905060006003600083815260200190815260200160002090508060405180610100016040529081600082015481526020016001820160009054906101000a900473ffffffffffffffffffffffffffffffffffffffff1673ffffffffffffffffffffffffffffffffffffffff1673ffffffffffffffffffffffffffffffffffffffff16815260200160028201548152602001600382015481526020016004820160009054906101000a900473ffffffffffffffffffffffffffffffffffffffff1673ffffffffffffffffffffffffffffffffffffffff1673ffffffffffffffffffffffffffffffffffffffff1681526020016005820160009054906101000a900473ffffffffffffffffffffffffffffffffffffffff1673ffffffffffffffffffffffffffffffffffffffff1673ffffffffffffffffffffffffffffffffffffffff168152602001600682015481526020016007820160009054906101000a900460ff161515151581525050848681518110610fbb57610fba61171b565b5b6020026020010181905250600185610fd391906116c5565b945050505b8080610fe39061174a565b915050610d9c565b508094505050505090565b600063f23a6e6160e01b905095945050505050565b600081600001549050919050565b6002600054141561105f576040517f08c379a0000000000000000000000000000000000000000000000000000000008152600401611056906119b7565b60405180910390fd5b6002600081905550565b6001816000016000828254019250508190555050565b6001600081905550565b60405180610100016040528060008152602001600073ffffffffffffffffffffffffffffffffffffffff1681526020016000815260200160008152602001600073ffffffffffffffffffffffffffffffffffffffff168152602001600073ffffffffffffffffffffffffffffffffffffffff168152602001600081526020016000151581525090565b600081519050919050565b600082825260208201905092915050565b6000819050602082019050919050565b6000819050919050565b6111518161113e565b82525050565b600073ffffffffffffffffffffffffffffffffffffffff82169050919050565b600061118282611157565b9050919050565b61119281611177565b82525050565b60006111a382611157565b9050919050565b6111b381611198565b82525050565b60008115159050919050565b6111ce816111b9565b82525050565b610100820160008201516111eb6000850182611148565b5060208201516111fe6020850182611189565b5060408201516112116040850182611148565b5060608201516112246060850182611148565b50608082015161123760808501826111aa565b5060a082015161124a60a08501826111aa565b5060c082015161125d60c0850182611148565b5060e082015161127060e08501826111c5565b50505050565b600061128283836111d4565b6101008301905092915050565b6000602082019050919050565b60006112a782611112565b6112b1818561111d565b93506112bc8361112e565b8060005b838110156112ed5781516112d48882611276565b97506112df8361128f565b9250506001810190506112c0565b5085935050505092915050565b60006020820190508181036000830152611314818461129c565b905092915050565b6000604051905090565b600080fd5b600080fd5b61133981611177565b811461134457600080fd5b50565b60008135905061135681611330565b92915050565b6113658161113e565b811461137057600080fd5b50565b6000813590506113828161135c565b92915050565b600080600080608085870312156113a2576113a1611326565b5b60006113b087828801611347565b94505060206113c187828801611373565b93505060406113d287828801611373565b92505060606113e387828801611373565b91505092959194509250565b6000806040838503121561140657611405611326565b5b600061141485828601611347565b925050602061142585828601611373565b9150509250929050565b600080fd5b600080fd5b6000601f19601f8301169050919050565b7f4e487b7100000000000000000000000000000000000000000000000000000000600052604160045260246000fd5b61148282611439565b810181811067ffffffffffffffff821117156114a1576114a061144a565b5b80604052505050565b60006114b461131c565b90506114c08282611479565b919050565b600067ffffffffffffffff8211156114e0576114df61144a565b5b6114e982611439565b9050602081019050919050565b82818337600083830152505050565b6000611518611513846114c5565b6114aa565b90508281526020810184848401111561153457611533611434565b5b61153f8482856114f6565b509392505050565b600082601f83011261155c5761155b61142f565b5b813561156c848260208601611505565b91505092915050565b600080600080600060a0868803121561159157611590611326565b5b600061159f88828901611347565b95505060206115b088828901611347565b94505060406115c188828901611373565b93505060606115d288828901611373565b925050608086013567ffffffffffffffff8111156115f3576115f261132b565b5b6115ff88828901611547565b9150509295509295909350565b60007fffffffff0000000000000000000000000000000000000000000000000000000082169050919050565b6116418161160c565b82525050565b600060208201905061165c6000830184611638565b92915050565b7f4e487b7100000000000000000000000000000000000000000000000000000000600052601160045260246000fd5b600061169c8261113e565b91506116a78361113e565b9250828210156116ba576116b9611662565b5b828203905092915050565b60006116d08261113e565b91506116db8361113e565b9250827fffffffffffffffffffffffffffffffffffffffffffffffffffffffffffffffff038211156117105761170f611662565b5b828201905092915050565b7f4e487b7100000000000000000000000000000000000000000000000000000000600052603260045260246000fd5b60006117558261113e565b91507fffffffffffffffffffffffffffffffffffffffffffffffffffffffffffffffff82141561178857611787611662565b5b600182019050919050565b61179c81611177565b82525050565b6117ab8161113e565b82525050565b600082825260208201905092915050565b50565b60006117d26000836117b1565b91506117dd826117c2565b600082019050919050565b600060a0820190506117fd6000830187611793565b61180a6020830186611793565b61181760408301856117a2565b61182460608301846117a2565b8181036080830152611835816117c5565b905095945050505050565b611849816111b9565b82525050565b600060a08201905061186460008301886117a2565b6118716020830187611793565b61187e6040830186611793565b61188b60608301856117a2565b6118986080830184611840565b9695505050505050565b600082825260208201905092915050565b7f506c656173652070726f76696465207468652061736b696e672070726963652060008201527f696e206f7264657220746f20636f6d706c65746520746865207075726368617360208201527f6500000000000000000000000000000000000000000000000000000000000000604082015250565b60006119356041836118a2565b9150611940826118b3565b606082019050919050565b6000602082019050818103600083015261196481611928565b9050919050565b7f5265656e7472616e637947756172643a207265656e7472616e742063616c6c00600082015250565b60006119a1601f836118a2565b91506119ac8261196b565b602082019050919050565b600060208201905081810360008301526119d081611994565b905091905056fea26469706673582212204e15ec75ce3dbd839d0de422c5bc3f059832cdd151ad0d49ef483174e735afaf64736f6c63430008090033",
  "linkReferences": {},
  "deployedLinkReferences": {}
}