{
  "_format": "hh-sol-artifact-1",
  "contractName": "Marketplace",
  "sourceName": "contracts/Marketplace.sol",
  "abi": [
    {
      "anonymous": false,
      "inputs": [
        {
          "indexed": true,
          "internalType": "uint256",
          "name": "itemId",
          "type": "uint256"
        },
        {
          "indexed": true,
          "internalType": "address",
          "name": "nftContract",
          "type": "address"
        },
        {
          "indexed": true,
          "internalType": "uint256",
          "name": "tokenId",
          "type": "uint256"
        },
        {
          "indexed": false,
          "internalType": "uint256",
          "name": "amount",
          "type": "uint256"
        },
        {
          "indexed": false,
          "internalType": "address",
          "name": "seller",
          "type": "address"
        },
        {
          "indexed": false,
          "internalType": "address",
          "name": "owner",
          "type": "address"
        },
        {
          "indexed": false,
          "internalType": "uint256",
          "name": "price",
          "type": "uint256"
        },
        {
          "indexed": false,
          "internalType": "bool",
          "name": "sold",
          "type": "bool"
        }
      ],
      "name": "MarketItemCreated",
      "type": "event"
    },
    {
      "inputs": [
        {
          "internalType": "address",
          "name": "_nftContract",
          "type": "address"
        },
        {
          "internalType": "uint256",
          "name": "_tokenId",
          "type": "uint256"
        },
        {
          "internalType": "uint256",
          "name": "_amount",
          "type": "uint256"
        },
        {
          "internalType": "uint256",
          "name": "_price",
          "type": "uint256"
        }
      ],
      "name": "createMarketItem",
      "outputs": [],
      "stateMutability": "nonpayable",
      "type": "function"
    },
    {
      "inputs": [
        {
          "internalType": "address",
          "name": "_nftContract",
          "type": "address"
        },
        {
          "internalType": "uint256",
          "name": "_itemId",
          "type": "uint256"
        }
      ],
      "name": "createMarketSale",
      "outputs": [],
      "stateMutability": "payable",
      "type": "function"
    },
    {
      "inputs": [],
      "name": "fetchItemsCreated",
      "outputs": [
        {
          "components": [
            {
              "internalType": "uint256",
              "name": "itemId",
              "type": "uint256"
            },
            {
              "internalType": "address",
              "name": "nftContract",
              "type": "address"
            },
            {
              "internalType": "uint256",
              "name": "tokenId",
              "type": "uint256"
            },
            {
              "internalType": "uint256",
              "name": "amount",
              "type": "uint256"
            },
            {
              "internalType": "address payable",
              "name": "seller",
              "type": "address"
            },
            {
              "internalType": "address payable",
              "name": "owner",
              "type": "address"
            },
            {
              "internalType": "uint256",
              "name": "price",
              "type": "uint256"
            },
            {
              "internalType": "bool",
              "name": "sold",
              "type": "bool"
            }
          ],
          "internalType": "struct Marketplace.MarketItem[]",
          "name": "",
          "type": "tuple[]"
        }
      ],
      "stateMutability": "view",
      "type": "function"
    },
    {
      "inputs": [],
      "name": "fetchMarketItems",
      "outputs": [
        {
          "components": [
            {
              "internalType": "uint256",
              "name": "itemId",
              "type": "uint256"
            },
            {
              "internalType": "address",
              "name": "nftContract",
              "type": "address"
            },
            {
              "internalType": "uint256",
              "name": "tokenId",
              "type": "uint256"
            },
            {
              "internalType": "uint256",
              "name": "amount",
              "type": "uint256"
            },
            {
              "internalType": "address payable",
              "name": "seller",
              "type": "address"
            },
            {
              "internalType": "address payable",
              "name": "owner",
              "type": "address"
            },
            {
              "internalType": "uint256",
              "name": "price",
              "type": "uint256"
            },
            {
              "internalType": "bool",
              "name": "sold",
              "type": "bool"
            }
          ],
          "internalType": "struct Marketplace.MarketItem[]",
          "name": "",
          "type": "tuple[]"
        }
      ],
      "stateMutability": "view",
      "type": "function"
    },
    {
      "inputs": [],
      "name": "fetchMyNFTs",
      "outputs": [
        {
          "components": [
            {
              "internalType": "uint256",
              "name": "itemId",
              "type": "uint256"
            },
            {
              "internalType": "address",
              "name": "nftContract",
              "type": "address"
            },
            {
              "internalType": "uint256",
              "name": "tokenId",
              "type": "uint256"
            },
            {
              "internalType": "uint256",
              "name": "amount",
              "type": "uint256"
            },
            {
              "internalType": "address payable",
              "name": "seller",
              "type": "address"
            },
            {
              "internalType": "address payable",
              "name": "owner",
              "type": "address"
            },
            {
              "internalType": "uint256",
              "name": "price",
              "type": "uint256"
            },
            {
              "internalType": "bool",
              "name": "sold",
              "type": "bool"
            }
          ],
          "internalType": "struct Marketplace.MarketItem[]",
          "name": "",
          "type": "tuple[]"
        }
      ],
      "stateMutability": "view",
      "type": "function"
    },
    {
      "inputs": [
        {
          "internalType": "address",
          "name": "",
          "type": "address"
        },
        {
          "internalType": "address",
          "name": "",
          "type": "address"
        },
        {
          "internalType": "uint256",
          "name": "",
          "type": "uint256"
        },
        {
          "internalType": "uint256",
          "name": "",
          "type": "uint256"
        },
        {
          "internalType": "bytes",
          "name": "",
          "type": "bytes"
        }
      ],
      "name": "onERC1155Received",
      "outputs": [
        {
          "internalType": "bytes4",
          "name": "",
          "type": "bytes4"
        }
      ],
      "stateMutability": "nonpayable",
      "type": "function"
    },
    {
      "inputs": [
        {
          "internalType": "address",
          "name": "_contract",
          "type": "address"
        },
        {
          "internalType": "uint256",
          "name": "_tokenId",
          "type": "uint256"
        }
      ],
      "name": "priceGetter",
      "outputs": [
        {
          "internalType": "uint256",
          "name": "",
          "type": "uint256"
        }
      ],
      "stateMutability": "view",
      "type": "function"
    },
    {
      "inputs": [
        {
          "internalType": "address",
          "name": "",
          "type": "address"
        },
        {
          "internalType": "uint256",
          "name": "",
          "type": "uint256"
        }
      ],
      "name": "pricePerTokenId",
      "outputs": [
        {
          "internalType": "uint256",
          "name": "",
          "type": "uint256"
        }
      ],
      "stateMutability": "view",
      "type": "function"
    }
  ],
  "bytecode": "0x608060405234801561001057600080fd5b506001600081905550611add806100286000396000f3fe60806040526004361061007b5760003560e01c80638c11365d1161004e5780638c11365d1461013c578063c23b139e14610179578063f064c32e14610195578063f23a6e61146101c05761007b565b8063086b7ed6146100805780630f08efe0146100bd578063202e3740146100e8578063599ba23414610113575b600080fd5b34801561008c57600080fd5b506100a760048036038101906100a29190611327565b6101fd565b6040516100b49190611376565b60405180910390f35b3480156100c957600080fd5b506100d2610258565b6040516100df919061153d565b60405180910390f35b3480156100f457600080fd5b506100fd610543565b60405161010a919061153d565b60405180910390f35b34801561011f57600080fd5b5061013a6004803603810190610135919061155f565b6108b2565b005b34801561014857600080fd5b50610163600480360381019061015e9190611327565b610bb4565b6040516101709190611376565b60405180910390f35b610193600480360381019061018e9190611327565b610bd9565b005b3480156101a157600080fd5b506101aa610df7565b6040516101b7919061153d565b60405180910390f35b3480156101cc57600080fd5b506101e760048036038101906101e2919061170c565b611163565b6040516101f491906117de565b60405180910390f35b6000600460008473ffffffffffffffffffffffffffffffffffffffff1673ffffffffffffffffffffffffffffffffffffffff168152602001908152602001600020600083815260200190815260200160002054905092915050565b606060006102666001611178565b905060006102746002611178565b61027e6001611178565b6102889190611828565b90506000808267ffffffffffffffff8111156102a7576102a66115e1565b5b6040519080825280602002602001820160405280156102e057816020015b6102cd6111f6565b8152602001906001900390816102c55790505b50905060005b8481101561053857600073ffffffffffffffffffffffffffffffffffffffff1660036000600184610317919061185c565b815260200190815260200160002060050160009054906101000a900473ffffffffffffffffffffffffffffffffffffffff1673ffffffffffffffffffffffffffffffffffffffff16141561052557600060036000600184610378919061185c565b815260200190815260200160002060000154905060006003600083815260200190815260200160002090508060405180610100016040529081600082015481526020016001820160009054906101000a900473ffffffffffffffffffffffffffffffffffffffff1673ffffffffffffffffffffffffffffffffffffffff1673ffffffffffffffffffffffffffffffffffffffff16815260200160028201548152602001600382015481526020016004820160009054906101000a900473ffffffffffffffffffffffffffffffffffffffff1673ffffffffffffffffffffffffffffffffffffffff1673ffffffffffffffffffffffffffffffffffffffff1681526020016005820160009054906101000a900473ffffffffffffffffffffffffffffffffffffffff1673ffffffffffffffffffffffffffffffffffffffff1673ffffffffffffffffffffffffffffffffffffffff168152602001600682015481526020016007820160009054906101000a900460ff161515151581525050848681518110610508576105076118b2565b5b6020026020010181905250600185610520919061185c565b945050505b8080610530906118e1565b9150506102e6565b508094505050505090565b606060006105516001611178565b905060008060005b838110156105fa573373ffffffffffffffffffffffffffffffffffffffff1660036000600184610589919061185c565b815260200190815260200160002060050160009054906101000a900473ffffffffffffffffffffffffffffffffffffffff1673ffffffffffffffffffffffffffffffffffffffff1614156105e7576001836105e4919061185c565b92505b80806105f2906118e1565b915050610559565b5060008267ffffffffffffffff811115610617576106166115e1565b5b60405190808252806020026020018201604052801561065057816020015b61063d6111f6565b8152602001906001900390816106355790505b50905060005b848110156108a7573373ffffffffffffffffffffffffffffffffffffffff1660036000600184610686919061185c565b815260200190815260200160002060050160009054906101000a900473ffffffffffffffffffffffffffffffffffffffff1673ffffffffffffffffffffffffffffffffffffffff161415610894576000600360006001846106e7919061185c565b815260200190815260200160002060000154905060006003600083815260200190815260200160002090508060405180610100016040529081600082015481526020016001820160009054906101000a900473ffffffffffffffffffffffffffffffffffffffff1673ffffffffffffffffffffffffffffffffffffffff1673ffffffffffffffffffffffffffffffffffffffff16815260200160028201548152602001600382015481526020016004820160009054906101000a900473ffffffffffffffffffffffffffffffffffffffff1673ffffffffffffffffffffffffffffffffffffffff1673ffffffffffffffffffffffffffffffffffffffff1681526020016005820160009054906101000a900473ffffffffffffffffffffffffffffffffffffffff1673ffffffffffffffffffffffffffffffffffffffff1673ffffffffffffffffffffffffffffffffffffffff168152602001600682015481526020016007820160009054906101000a900460ff161515151581525050848381518110610877576108766118b2565b5b602002602001018190525060018561088f919061185c565b945050505b808061089f906118e1565b915050610656565b508094505050505090565b6108ba611186565b6108c460016111d6565b60006108d06001611178565b90506040518061010001604052808281526020018673ffffffffffffffffffffffffffffffffffffffff1681526020018581526020018481526020013373ffffffffffffffffffffffffffffffffffffffff168152602001600073ffffffffffffffffffffffffffffffffffffffff16815260200183815260200160001515815250600360008381526020019081526020016000206000820151816000015560208201518160010160006101000a81548173ffffffffffffffffffffffffffffffffffffffff021916908373ffffffffffffffffffffffffffffffffffffffff160217905550604082015181600201556060820151816003015560808201518160040160006101000a81548173ffffffffffffffffffffffffffffffffffffffff021916908373ffffffffffffffffffffffffffffffffffffffff16021790555060a08201518160050160006101000a81548173ffffffffffffffffffffffffffffffffffffffff021916908373ffffffffffffffffffffffffffffffffffffffff16021790555060c0820151816006015560e08201518160070160006101000a81548160ff0219169083151502179055509050508473ffffffffffffffffffffffffffffffffffffffff1663f242432a333087876040518563ffffffff1660e01b8152600401610ac49493929190611970565b600060405180830381600087803b158015610ade57600080fd5b505af1158015610af2573d6000803e3d6000fd5b50505050838573ffffffffffffffffffffffffffffffffffffffff16827f79f8c05bb09c0956360a67fcd99d7cd58b143c2e5965443ccf2238950961eac586336000886000604051610b489594939291906119d7565b60405180910390a481600460008773ffffffffffffffffffffffffffffffffffffffff1673ffffffffffffffffffffffffffffffffffffffff16815260200190815260200160002060008681526020019081526020016000208190555050610bae6111ec565b50505050565b6004602052816000526040600020602052806000526040600020600091509150505481565b610be1611186565b6000600360008381526020019081526020016000206002015490506000600360008481526020019081526020016000206003015490506003600084815260200190815260200160002060040160009054906101000a900473ffffffffffffffffffffffffffffffffffffffff1673ffffffffffffffffffffffffffffffffffffffff166108fc349081150290604051600060405180830381858888f19350505050158015610c93573d6000803e3d6000fd5b508373ffffffffffffffffffffffffffffffffffffffff1663f242432a303385856040518563ffffffff1660e01b8152600401610cd39493929190611970565b600060405180830381600087803b158015610ced57600080fd5b505af1158015610d01573d6000803e3d6000fd5b50505050336003600085815260200190815260200160002060050160006101000a81548173ffffffffffffffffffffffffffffffffffffffff021916908373ffffffffffffffffffffffffffffffffffffffff16021790555060016003600085815260200190815260200160002060070160006101000a81548160ff021916908315150217905550610d9360026111d6565b6000600460008673ffffffffffffffffffffffffffffffffffffffff1673ffffffffffffffffffffffffffffffffffffffff1681526020019081526020016000206000848152602001908152602001600020819055505050610df36111ec565b5050565b60606000610e056001611178565b905060008060005b83811015610ead573373ffffffffffffffffffffffffffffffffffffffff16600360008084610e3c919061185c565b815260200190815260200160002060040160009054906101000a900473ffffffffffffffffffffffffffffffffffffffff1673ffffffffffffffffffffffffffffffffffffffff161415610e9a57600183610e97919061185c565b92505b8080610ea5906118e1565b915050610e0d565b5060008267ffffffffffffffff811115610eca57610ec96115e1565b5b604051908082528060200260200182016040528015610f0357816020015b610ef06111f6565b815260200190600190039081610ee85790505b50905060005b84811015611158573373ffffffffffffffffffffffffffffffffffffffff16600360008084610f38919061185c565b815260200190815260200160002060040160009054906101000a900473ffffffffffffffffffffffffffffffffffffffff1673ffffffffffffffffffffffffffffffffffffffff161415611145576000600360008084610f98919061185c565b815260200190815260200160002060000154905060006003600083815260200190815260200160002090508060405180610100016040529081600082015481526020016001820160009054906101000a900473ffffffffffffffffffffffffffffffffffffffff1673ffffffffffffffffffffffffffffffffffffffff1673ffffffffffffffffffffffffffffffffffffffff16815260200160028201548152602001600382015481526020016004820160009054906101000a900473ffffffffffffffffffffffffffffffffffffffff1673ffffffffffffffffffffffffffffffffffffffff1673ffffffffffffffffffffffffffffffffffffffff1681526020016005820160009054906101000a900473ffffffffffffffffffffffffffffffffffffffff1673ffffffffffffffffffffffffffffffffffffffff1673ffffffffffffffffffffffffffffffffffffffff168152602001600682015481526020016007820160009054906101000a900460ff161515151581525050848681518110611128576111276118b2565b5b6020026020010181905250600185611140919061185c565b945050505b8080611150906118e1565b915050610f09565b508094505050505090565b600063f23a6e6160e01b905095945050505050565b600081600001549050919050565b600260005414156111cc576040517f08c379a00000000000000000000000000000000000000000000000000000000081526004016111c390611a87565b60405180910390fd5b6002600081905550565b6001816000016000828254019250508190555050565b6001600081905550565b60405180610100016040528060008152602001600073ffffffffffffffffffffffffffffffffffffffff1681526020016000815260200160008152602001600073ffffffffffffffffffffffffffffffffffffffff168152602001600073ffffffffffffffffffffffffffffffffffffffff168152602001600081526020016000151581525090565b6000604051905090565b600080fd5b600080fd5b600073ffffffffffffffffffffffffffffffffffffffff82169050919050565b60006112be82611293565b9050919050565b6112ce816112b3565b81146112d957600080fd5b50565b6000813590506112eb816112c5565b92915050565b6000819050919050565b611304816112f1565b811461130f57600080fd5b50565b600081359050611321816112fb565b92915050565b6000806040838503121561133e5761133d611289565b5b600061134c858286016112dc565b925050602061135d85828601611312565b9150509250929050565b611370816112f1565b82525050565b600060208201905061138b6000830184611367565b92915050565b600081519050919050565b600082825260208201905092915050565b6000819050602082019050919050565b6113c6816112f1565b82525050565b6113d5816112b3565b82525050565b60006113e682611293565b9050919050565b6113f6816113db565b82525050565b60008115159050919050565b611411816113fc565b82525050565b6101008201600082015161142e60008501826113bd565b50602082015161144160208501826113cc565b50604082015161145460408501826113bd565b50606082015161146760608501826113bd565b50608082015161147a60808501826113ed565b5060a082015161148d60a08501826113ed565b5060c08201516114a060c08501826113bd565b5060e08201516114b360e0850182611408565b50505050565b60006114c58383611417565b6101008301905092915050565b6000602082019050919050565b60006114ea82611391565b6114f4818561139c565b93506114ff836113ad565b8060005b8381101561153057815161151788826114b9565b9750611522836114d2565b925050600181019050611503565b5085935050505092915050565b6000602082019050818103600083015261155781846114df565b905092915050565b6000806000806080858703121561157957611578611289565b5b6000611587878288016112dc565b945050602061159887828801611312565b93505060406115a987828801611312565b92505060606115ba87828801611312565b91505092959194509250565b600080fd5b600080fd5b6000601f19601f8301169050919050565b7f4e487b7100000000000000000000000000000000000000000000000000000000600052604160045260246000fd5b611619826115d0565b810181811067ffffffffffffffff82111715611638576116376115e1565b5b80604052505050565b600061164b61127f565b90506116578282611610565b919050565b600067ffffffffffffffff821115611677576116766115e1565b5b611680826115d0565b9050602081019050919050565b82818337600083830152505050565b60006116af6116aa8461165c565b611641565b9050828152602081018484840111156116cb576116ca6115cb565b5b6116d684828561168d565b509392505050565b600082601f8301126116f3576116f26115c6565b5b813561170384826020860161169c565b91505092915050565b600080600080600060a0868803121561172857611727611289565b5b6000611736888289016112dc565b9550506020611747888289016112dc565b945050604061175888828901611312565b935050606061176988828901611312565b925050608086013567ffffffffffffffff81111561178a5761178961128e565b5b611796888289016116de565b9150509295509295909350565b60007fffffffff0000000000000000000000000000000000000000000000000000000082169050919050565b6117d8816117a3565b82525050565b60006020820190506117f360008301846117cf565b92915050565b7f4e487b7100000000000000000000000000000000000000000000000000000000600052601160045260246000fd5b6000611833826112f1565b915061183e836112f1565b925082821015611851576118506117f9565b5b828203905092915050565b6000611867826112f1565b9150611872836112f1565b9250827fffffffffffffffffffffffffffffffffffffffffffffffffffffffffffffffff038211156118a7576118a66117f9565b5b828201905092915050565b7f4e487b7100000000000000000000000000000000000000000000000000000000600052603260045260246000fd5b60006118ec826112f1565b91507fffffffffffffffffffffffffffffffffffffffffffffffffffffffffffffffff82141561191f5761191e6117f9565b5b600182019050919050565b611933816112b3565b82525050565b600082825260208201905092915050565b50565b600061195a600083611939565b91506119658261194a565b600082019050919050565b600060a082019050611985600083018761192a565b611992602083018661192a565b61199f6040830185611367565b6119ac6060830184611367565b81810360808301526119bd8161194d565b905095945050505050565b6119d1816113fc565b82525050565b600060a0820190506119ec6000830188611367565b6119f9602083018761192a565b611a06604083018661192a565b611a136060830185611367565b611a2060808301846119c8565b9695505050505050565b600082825260208201905092915050565b7f5265656e7472616e637947756172643a207265656e7472616e742063616c6c00600082015250565b6000611a71601f83611a2a565b9150611a7c82611a3b565b602082019050919050565b60006020820190508181036000830152611aa081611a64565b905091905056fea264697066735822122051f8d2eeafc6803128d032cbe31848546308373b86f13fd845ad453a4971656464736f6c63430008090033",
  "linkReferences": {},
  "deployedLinkReferences": {}
}