{
  "_format": "hh-sol-artifact-1",
  "contractName": "Marketplace",
  "sourceName": "contracts/Marketplace.sol",
  "abi": [
    {
      "anonymous": false,
      "inputs": [
        {
          "indexed": true,
          "internalType": "uint256",
          "name": "itemId",
          "type": "uint256"
        },
        {
          "indexed": true,
          "internalType": "address",
          "name": "nftContract",
          "type": "address"
        },
        {
          "indexed": true,
          "internalType": "uint256",
          "name": "tokenId",
          "type": "uint256"
        },
        {
          "indexed": false,
          "internalType": "uint256",
          "name": "amount",
          "type": "uint256"
        },
        {
          "indexed": false,
          "internalType": "address",
          "name": "seller",
          "type": "address"
        },
        {
          "indexed": false,
          "internalType": "address",
          "name": "owner",
          "type": "address"
        },
        {
          "indexed": false,
          "internalType": "uint256",
          "name": "price",
          "type": "uint256"
        },
        {
          "indexed": false,
          "internalType": "bool",
          "name": "sold",
          "type": "bool"
        }
      ],
      "name": "MarketItemCreated",
      "type": "event"
    },
    {
      "inputs": [
        {
          "internalType": "address",
          "name": "_nftContract",
          "type": "address"
        },
        {
          "internalType": "uint256",
          "name": "_tokenId",
          "type": "uint256"
        },
        {
          "internalType": "uint256",
          "name": "_amount",
          "type": "uint256"
        },
        {
          "internalType": "uint256",
          "name": "_price",
          "type": "uint256"
        }
      ],
      "name": "createMarketItem",
      "outputs": [],
      "stateMutability": "nonpayable",
      "type": "function"
    },
    {
      "inputs": [
        {
          "internalType": "address",
          "name": "_nftContract",
          "type": "address"
        },
        {
          "internalType": "uint256",
          "name": "_itemId",
          "type": "uint256"
        }
      ],
      "name": "createMarketSale",
      "outputs": [],
      "stateMutability": "payable",
      "type": "function"
    },
    {
      "inputs": [],
      "name": "fetchItemsCreated",
      "outputs": [
        {
          "components": [
            {
              "internalType": "uint256",
              "name": "itemId",
              "type": "uint256"
            },
            {
              "internalType": "address",
              "name": "nftContract",
              "type": "address"
            },
            {
              "internalType": "uint256",
              "name": "tokenId",
              "type": "uint256"
            },
            {
              "internalType": "uint256",
              "name": "amount",
              "type": "uint256"
            },
            {
              "internalType": "address payable",
              "name": "seller",
              "type": "address"
            },
            {
              "internalType": "address payable",
              "name": "owner",
              "type": "address"
            },
            {
              "internalType": "uint256",
              "name": "price",
              "type": "uint256"
            },
            {
              "internalType": "bool",
              "name": "sold",
              "type": "bool"
            }
          ],
          "internalType": "struct Marketplace.MarketItem[]",
          "name": "",
          "type": "tuple[]"
        }
      ],
      "stateMutability": "view",
      "type": "function"
    },
    {
      "inputs": [],
      "name": "fetchMarketItems",
      "outputs": [
        {
          "components": [
            {
              "internalType": "uint256",
              "name": "itemId",
              "type": "uint256"
            },
            {
              "internalType": "address",
              "name": "nftContract",
              "type": "address"
            },
            {
              "internalType": "uint256",
              "name": "tokenId",
              "type": "uint256"
            },
            {
              "internalType": "uint256",
              "name": "amount",
              "type": "uint256"
            },
            {
              "internalType": "address payable",
              "name": "seller",
              "type": "address"
            },
            {
              "internalType": "address payable",
              "name": "owner",
              "type": "address"
            },
            {
              "internalType": "uint256",
              "name": "price",
              "type": "uint256"
            },
            {
              "internalType": "bool",
              "name": "sold",
              "type": "bool"
            }
          ],
          "internalType": "struct Marketplace.MarketItem[]",
          "name": "",
          "type": "tuple[]"
        }
      ],
      "stateMutability": "view",
      "type": "function"
    },
    {
      "inputs": [],
      "name": "fetchMyNFTs",
      "outputs": [
        {
          "components": [
            {
              "internalType": "uint256",
              "name": "itemId",
              "type": "uint256"
            },
            {
              "internalType": "address",
              "name": "nftContract",
              "type": "address"
            },
            {
              "internalType": "uint256",
              "name": "tokenId",
              "type": "uint256"
            },
            {
              "internalType": "uint256",
              "name": "amount",
              "type": "uint256"
            },
            {
              "internalType": "address payable",
              "name": "seller",
              "type": "address"
            },
            {
              "internalType": "address payable",
              "name": "owner",
              "type": "address"
            },
            {
              "internalType": "uint256",
              "name": "price",
              "type": "uint256"
            },
            {
              "internalType": "bool",
              "name": "sold",
              "type": "bool"
            }
          ],
          "internalType": "struct Marketplace.MarketItem[]",
          "name": "",
          "type": "tuple[]"
        }
      ],
      "stateMutability": "view",
      "type": "function"
    },
    {
      "inputs": [
        {
          "internalType": "address",
          "name": "",
          "type": "address"
        },
        {
          "internalType": "address",
          "name": "",
          "type": "address"
        },
        {
          "internalType": "uint256",
          "name": "",
          "type": "uint256"
        },
        {
          "internalType": "uint256",
          "name": "",
          "type": "uint256"
        },
        {
          "internalType": "bytes",
          "name": "",
          "type": "bytes"
        }
      ],
      "name": "onERC1155Received",
      "outputs": [
        {
          "internalType": "bytes4",
          "name": "",
          "type": "bytes4"
        }
      ],
      "stateMutability": "nonpayable",
      "type": "function"
    },
    {
      "inputs": [
        {
          "internalType": "address",
          "name": "_contract",
          "type": "address"
        },
        {
          "internalType": "uint256",
          "name": "_tokenId",
          "type": "uint256"
        }
      ],
      "name": "priceGetter",
      "outputs": [
        {
          "internalType": "uint256",
          "name": "",
          "type": "uint256"
        }
      ],
      "stateMutability": "view",
      "type": "function"
    },
    {
      "inputs": [
        {
          "internalType": "address",
          "name": "",
          "type": "address"
        },
        {
          "internalType": "uint256",
          "name": "",
          "type": "uint256"
        }
      ],
      "name": "pricePerTokenId",
      "outputs": [
        {
          "internalType": "uint256",
          "name": "",
          "type": "uint256"
        }
      ],
      "stateMutability": "view",
      "type": "function"
    }
  ],
  "bytecode": "0x608060405234801561001057600080fd5b506001600081905550611bf3806100286000396000f3fe60806040526004361061007b5760003560e01c80638c11365d1161004e5780638c11365d1461013c578063c23b139e14610179578063f064c32e14610195578063f23a6e61146101c05761007b565b8063086b7ed6146100805780630f08efe0146100bd578063202e3740146100e8578063599ba23414610113575b600080fd5b34801561008c57600080fd5b506100a760048036038101906100a29190611385565b6101fd565b6040516100b491906113d4565b60405180910390f35b3480156100c957600080fd5b506100d2610258565b6040516100df919061159b565b60405180910390f35b3480156100f457600080fd5b506100fd610543565b60405161010a919061159b565b60405180910390f35b34801561011f57600080fd5b5061013a600480360381019061013591906115bd565b6108b2565b005b34801561014857600080fd5b50610163600480360381019061015e9190611385565b610bb4565b60405161017091906113d4565b60405180910390f35b610193600480360381019061018e9190611385565b610bd9565b005b3480156101a157600080fd5b506101aa610e55565b6040516101b7919061159b565b60405180910390f35b3480156101cc57600080fd5b506101e760048036038101906101e2919061176a565b6111c1565b6040516101f4919061183c565b60405180910390f35b6000600460008473ffffffffffffffffffffffffffffffffffffffff1673ffffffffffffffffffffffffffffffffffffffff168152602001908152602001600020600083815260200190815260200160002054905092915050565b6060600061026660016111d6565b9050600061027460026111d6565b61027e60016111d6565b6102889190611886565b90506000808267ffffffffffffffff8111156102a7576102a661163f565b5b6040519080825280602002602001820160405280156102e057816020015b6102cd611254565b8152602001906001900390816102c55790505b50905060005b8481101561053857600073ffffffffffffffffffffffffffffffffffffffff166003600060018461031791906118ba565b815260200190815260200160002060050160009054906101000a900473ffffffffffffffffffffffffffffffffffffffff1673ffffffffffffffffffffffffffffffffffffffff1614156105255760006003600060018461037891906118ba565b815260200190815260200160002060000154905060006003600083815260200190815260200160002090508060405180610100016040529081600082015481526020016001820160009054906101000a900473ffffffffffffffffffffffffffffffffffffffff1673ffffffffffffffffffffffffffffffffffffffff1673ffffffffffffffffffffffffffffffffffffffff16815260200160028201548152602001600382015481526020016004820160009054906101000a900473ffffffffffffffffffffffffffffffffffffffff1673ffffffffffffffffffffffffffffffffffffffff1673ffffffffffffffffffffffffffffffffffffffff1681526020016005820160009054906101000a900473ffffffffffffffffffffffffffffffffffffffff1673ffffffffffffffffffffffffffffffffffffffff1673ffffffffffffffffffffffffffffffffffffffff168152602001600682015481526020016007820160009054906101000a900460ff16151515158152505084868151811061050857610507611910565b5b602002602001018190525060018561052091906118ba565b945050505b80806105309061193f565b9150506102e6565b508094505050505090565b6060600061055160016111d6565b905060008060005b838110156105fa573373ffffffffffffffffffffffffffffffffffffffff166003600060018461058991906118ba565b815260200190815260200160002060050160009054906101000a900473ffffffffffffffffffffffffffffffffffffffff1673ffffffffffffffffffffffffffffffffffffffff1614156105e7576001836105e491906118ba565b92505b80806105f29061193f565b915050610559565b5060008267ffffffffffffffff8111156106175761061661163f565b5b60405190808252806020026020018201604052801561065057816020015b61063d611254565b8152602001906001900390816106355790505b50905060005b848110156108a7573373ffffffffffffffffffffffffffffffffffffffff166003600060018461068691906118ba565b815260200190815260200160002060050160009054906101000a900473ffffffffffffffffffffffffffffffffffffffff1673ffffffffffffffffffffffffffffffffffffffff161415610894576000600360006001846106e791906118ba565b815260200190815260200160002060000154905060006003600083815260200190815260200160002090508060405180610100016040529081600082015481526020016001820160009054906101000a900473ffffffffffffffffffffffffffffffffffffffff1673ffffffffffffffffffffffffffffffffffffffff1673ffffffffffffffffffffffffffffffffffffffff16815260200160028201548152602001600382015481526020016004820160009054906101000a900473ffffffffffffffffffffffffffffffffffffffff1673ffffffffffffffffffffffffffffffffffffffff1673ffffffffffffffffffffffffffffffffffffffff1681526020016005820160009054906101000a900473ffffffffffffffffffffffffffffffffffffffff1673ffffffffffffffffffffffffffffffffffffffff1673ffffffffffffffffffffffffffffffffffffffff168152602001600682015481526020016007820160009054906101000a900460ff16151515158152505084838151811061087757610876611910565b5b602002602001018190525060018561088f91906118ba565b945050505b808061089f9061193f565b915050610656565b508094505050505090565b6108ba6111e4565b6108c46001611234565b60006108d060016111d6565b90506040518061010001604052808281526020018673ffffffffffffffffffffffffffffffffffffffff1681526020018581526020018481526020013373ffffffffffffffffffffffffffffffffffffffff168152602001600073ffffffffffffffffffffffffffffffffffffffff16815260200183815260200160001515815250600360008381526020019081526020016000206000820151816000015560208201518160010160006101000a81548173ffffffffffffffffffffffffffffffffffffffff021916908373ffffffffffffffffffffffffffffffffffffffff160217905550604082015181600201556060820151816003015560808201518160040160006101000a81548173ffffffffffffffffffffffffffffffffffffffff021916908373ffffffffffffffffffffffffffffffffffffffff16021790555060a08201518160050160006101000a81548173ffffffffffffffffffffffffffffffffffffffff021916908373ffffffffffffffffffffffffffffffffffffffff16021790555060c0820151816006015560e08201518160070160006101000a81548160ff0219169083151502179055509050508473ffffffffffffffffffffffffffffffffffffffff1663f242432a333087876040518563ffffffff1660e01b8152600401610ac494939291906119ce565b600060405180830381600087803b158015610ade57600080fd5b505af1158015610af2573d6000803e3d6000fd5b50505050838573ffffffffffffffffffffffffffffffffffffffff16827f79f8c05bb09c0956360a67fcd99d7cd58b143c2e5965443ccf2238950961eac586336000886000604051610b48959493929190611a35565b60405180910390a481600460008773ffffffffffffffffffffffffffffffffffffffff1673ffffffffffffffffffffffffffffffffffffffff16815260200190815260200160002060008681526020019081526020016000208190555050610bae61124a565b50505050565b6004602052816000526040600020602052806000526040600020600091509150505481565b610be16111e4565b600060036000838152602001908152602001600020600601549050600060036000848152602001908152602001600020600201549050600060036000858152602001908152602001600020600301549050823414610c74576040517f08c379a0000000000000000000000000000000000000000000000000000000008152600401610c6b90611b31565b60405180910390fd5b6003600085815260200190815260200160002060040160009054906101000a900473ffffffffffffffffffffffffffffffffffffffff1673ffffffffffffffffffffffffffffffffffffffff166108fc349081150290604051600060405180830381858888f19350505050158015610cf0573d6000803e3d6000fd5b508473ffffffffffffffffffffffffffffffffffffffff1663f242432a303385856040518563ffffffff1660e01b8152600401610d3094939291906119ce565b600060405180830381600087803b158015610d4a57600080fd5b505af1158015610d5e573d6000803e3d6000fd5b50505050336003600086815260200190815260200160002060050160006101000a81548173ffffffffffffffffffffffffffffffffffffffff021916908373ffffffffffffffffffffffffffffffffffffffff16021790555060016003600086815260200190815260200160002060070160006101000a81548160ff021916908315150217905550610df06002611234565b6000600460008773ffffffffffffffffffffffffffffffffffffffff1673ffffffffffffffffffffffffffffffffffffffff168152602001908152602001600020600084815260200190815260200160002081905550505050610e5161124a565b5050565b60606000610e6360016111d6565b905060008060005b83811015610f0b573373ffffffffffffffffffffffffffffffffffffffff16600360008084610e9a91906118ba565b815260200190815260200160002060040160009054906101000a900473ffffffffffffffffffffffffffffffffffffffff1673ffffffffffffffffffffffffffffffffffffffff161415610ef857600183610ef591906118ba565b92505b8080610f039061193f565b915050610e6b565b5060008267ffffffffffffffff811115610f2857610f2761163f565b5b604051908082528060200260200182016040528015610f6157816020015b610f4e611254565b815260200190600190039081610f465790505b50905060005b848110156111b6573373ffffffffffffffffffffffffffffffffffffffff16600360008084610f9691906118ba565b815260200190815260200160002060040160009054906101000a900473ffffffffffffffffffffffffffffffffffffffff1673ffffffffffffffffffffffffffffffffffffffff1614156111a3576000600360008084610ff691906118ba565b815260200190815260200160002060000154905060006003600083815260200190815260200160002090508060405180610100016040529081600082015481526020016001820160009054906101000a900473ffffffffffffffffffffffffffffffffffffffff1673ffffffffffffffffffffffffffffffffffffffff1673ffffffffffffffffffffffffffffffffffffffff16815260200160028201548152602001600382015481526020016004820160009054906101000a900473ffffffffffffffffffffffffffffffffffffffff1673ffffffffffffffffffffffffffffffffffffffff1673ffffffffffffffffffffffffffffffffffffffff1681526020016005820160009054906101000a900473ffffffffffffffffffffffffffffffffffffffff1673ffffffffffffffffffffffffffffffffffffffff1673ffffffffffffffffffffffffffffffffffffffff168152602001600682015481526020016007820160009054906101000a900460ff16151515158152505084868151811061118657611185611910565b5b602002602001018190525060018561119e91906118ba565b945050505b80806111ae9061193f565b915050610f67565b508094505050505090565b600063f23a6e6160e01b905095945050505050565b600081600001549050919050565b6002600054141561122a576040517f08c379a000000000000000000000000000000000000000000000000000000000815260040161122190611b9d565b60405180910390fd5b6002600081905550565b6001816000016000828254019250508190555050565b6001600081905550565b60405180610100016040528060008152602001600073ffffffffffffffffffffffffffffffffffffffff1681526020016000815260200160008152602001600073ffffffffffffffffffffffffffffffffffffffff168152602001600073ffffffffffffffffffffffffffffffffffffffff168152602001600081526020016000151581525090565b6000604051905090565b600080fd5b600080fd5b600073ffffffffffffffffffffffffffffffffffffffff82169050919050565b600061131c826112f1565b9050919050565b61132c81611311565b811461133757600080fd5b50565b60008135905061134981611323565b92915050565b6000819050919050565b6113628161134f565b811461136d57600080fd5b50565b60008135905061137f81611359565b92915050565b6000806040838503121561139c5761139b6112e7565b5b60006113aa8582860161133a565b92505060206113bb85828601611370565b9150509250929050565b6113ce8161134f565b82525050565b60006020820190506113e960008301846113c5565b92915050565b600081519050919050565b600082825260208201905092915050565b6000819050602082019050919050565b6114248161134f565b82525050565b61143381611311565b82525050565b6000611444826112f1565b9050919050565b61145481611439565b82525050565b60008115159050919050565b61146f8161145a565b82525050565b6101008201600082015161148c600085018261141b565b50602082015161149f602085018261142a565b5060408201516114b2604085018261141b565b5060608201516114c5606085018261141b565b5060808201516114d8608085018261144b565b5060a08201516114eb60a085018261144b565b5060c08201516114fe60c085018261141b565b5060e082015161151160e0850182611466565b50505050565b60006115238383611475565b6101008301905092915050565b6000602082019050919050565b6000611548826113ef565b61155281856113fa565b935061155d8361140b565b8060005b8381101561158e5781516115758882611517565b975061158083611530565b925050600181019050611561565b5085935050505092915050565b600060208201905081810360008301526115b5818461153d565b905092915050565b600080600080608085870312156115d7576115d66112e7565b5b60006115e58782880161133a565b94505060206115f687828801611370565b935050604061160787828801611370565b925050606061161887828801611370565b91505092959194509250565b600080fd5b600080fd5b6000601f19601f8301169050919050565b7f4e487b7100000000000000000000000000000000000000000000000000000000600052604160045260246000fd5b6116778261162e565b810181811067ffffffffffffffff821117156116965761169561163f565b5b80604052505050565b60006116a96112dd565b90506116b5828261166e565b919050565b600067ffffffffffffffff8211156116d5576116d461163f565b5b6116de8261162e565b9050602081019050919050565b82818337600083830152505050565b600061170d611708846116ba565b61169f565b90508281526020810184848401111561172957611728611629565b5b6117348482856116eb565b509392505050565b600082601f83011261175157611750611624565b5b81356117618482602086016116fa565b91505092915050565b600080600080600060a08688031215611786576117856112e7565b5b60006117948882890161133a565b95505060206117a58882890161133a565b94505060406117b688828901611370565b93505060606117c788828901611370565b925050608086013567ffffffffffffffff8111156117e8576117e76112ec565b5b6117f48882890161173c565b9150509295509295909350565b60007fffffffff0000000000000000000000000000000000000000000000000000000082169050919050565b61183681611801565b82525050565b6000602082019050611851600083018461182d565b92915050565b7f4e487b7100000000000000000000000000000000000000000000000000000000600052601160045260246000fd5b60006118918261134f565b915061189c8361134f565b9250828210156118af576118ae611857565b5b828203905092915050565b60006118c58261134f565b91506118d08361134f565b9250827fffffffffffffffffffffffffffffffffffffffffffffffffffffffffffffffff0382111561190557611904611857565b5b828201905092915050565b7f4e487b7100000000000000000000000000000000000000000000000000000000600052603260045260246000fd5b600061194a8261134f565b91507fffffffffffffffffffffffffffffffffffffffffffffffffffffffffffffffff82141561197d5761197c611857565b5b600182019050919050565b61199181611311565b82525050565b600082825260208201905092915050565b50565b60006119b8600083611997565b91506119c3826119a8565b600082019050919050565b600060a0820190506119e36000830187611988565b6119f06020830186611988565b6119fd60408301856113c5565b611a0a60608301846113c5565b8181036080830152611a1b816119ab565b905095945050505050565b611a2f8161145a565b82525050565b600060a082019050611a4a60008301886113c5565b611a576020830187611988565b611a646040830186611988565b611a7160608301856113c5565b611a7e6080830184611a26565b9695505050505050565b600082825260208201905092915050565b7f506c656173652070726f76696465207468652061736b696e672070726963652060008201527f696e206f7264657220746f20636f6d706c65746520746865207075726368617360208201527f6500000000000000000000000000000000000000000000000000000000000000604082015250565b6000611b1b604183611a88565b9150611b2682611a99565b606082019050919050565b60006020820190508181036000830152611b4a81611b0e565b9050919050565b7f5265656e7472616e637947756172643a207265656e7472616e742063616c6c00600082015250565b6000611b87601f83611a88565b9150611b9282611b51565b602082019050919050565b60006020820190508181036000830152611bb681611b7a565b905091905056fea26469706673582212208ca8946be31730eec45df7ec2a34a22db73ff727c26d479c47a6caae399b741b64736f6c63430008090033",
  "linkReferences": {},
  "deployedLinkReferences": {}
}