{
  "_format": "hh-sol-artifact-1",
  "contractName": "Marketplace",
  "sourceName": "contracts/Marketplace.sol",
  "abi": [
    {
      "inputs": [
        {
          "internalType": "address",
          "name": "_nftContract",
          "type": "address"
        },
        {
          "internalType": "uint256",
          "name": "_tokenId",
          "type": "uint256"
        },
        {
          "internalType": "uint256",
          "name": "_amount",
          "type": "uint256"
        },
        {
          "internalType": "uint256",
          "name": "_pricePerToken",
          "type": "uint256"
        }
      ],
      "name": "createMarketItem",
      "outputs": [],
      "stateMutability": "nonpayable",
      "type": "function"
    },
    {
      "inputs": [
        {
          "internalType": "address",
          "name": "_nftContract",
          "type": "address"
        },
        {
          "internalType": "uint256",
          "name": "_tokenId",
          "type": "uint256"
        },
        {
          "internalType": "uint256",
          "name": "_amount",
          "type": "uint256"
        }
      ],
      "name": "createMarketSale",
      "outputs": [],
      "stateMutability": "payable",
      "type": "function"
    },
    {
      "inputs": [
        {
          "internalType": "address",
          "name": "",
          "type": "address"
        },
        {
          "internalType": "address",
          "name": "",
          "type": "address"
        },
        {
          "internalType": "uint256",
          "name": "",
          "type": "uint256"
        },
        {
          "internalType": "uint256",
          "name": "",
          "type": "uint256"
        },
        {
          "internalType": "bytes",
          "name": "",
          "type": "bytes"
        }
      ],
      "name": "onERC1155Received",
      "outputs": [
        {
          "internalType": "bytes4",
          "name": "",
          "type": "bytes4"
        }
      ],
      "stateMutability": "nonpayable",
      "type": "function"
    },
    {
      "inputs": [
        {
          "internalType": "uint256",
          "name": "_tokenId",
          "type": "uint256"
        }
      ],
      "name": "pricePerTokenGetter",
      "outputs": [
        {
          "internalType": "uint256",
          "name": "",
          "type": "uint256"
        }
      ],
      "stateMutability": "view",
      "type": "function"
    }
  ],
  "bytecode": "0x608060405234801561001057600080fd5b506001600081905550610b54806100286000396000f3fe60806040526004361061003f5760003560e01c806321cf91ac14610044578063563f7a8914610060578063599ba2341461009d578063f23a6e61146100c6575b600080fd5b61005e60048036038101906100599190610570565b610103565b005b34801561006c57600080fd5b50610087600480360381019061008291906105c3565b61029d565b60405161009491906105ff565b60405180910390f35b3480156100a957600080fd5b506100c460048036038101906100bf919061061a565b6102bd565b005b3480156100d257600080fd5b506100ed60048036038101906100e891906107c7565b610459565b6040516100fa9190610899565b60405180910390f35b61010b61046e565b600060016000848152602001908152602001600020600401549050818161013291906108e3565b341015610174576040517f08c379a000000000000000000000000000000000000000000000000000000000815260040161016b906109c0565b60405180910390fd5b6001600084815260200190815260200160002060010160009054906101000a900473ffffffffffffffffffffffffffffffffffffffff1673ffffffffffffffffffffffffffffffffffffffff166108fc349081150290604051600060405180830381858888f193505050501580156101f0573d6000803e3d6000fd5b508373ffffffffffffffffffffffffffffffffffffffff1663f242432a303386866040518563ffffffff1660e01b81526004016102309493929190610a26565b600060405180830381600087803b15801561024a57600080fd5b505af115801561025e573d6000803e3d6000fd5b50505050816001600085815260200190815260200160002060030160008282546102889190610a7e565b92505081905550506102986104be565b505050565b600060016000838152602001908152602001600020600401549050919050565b6102c561046e565b6040518060a001604052808573ffffffffffffffffffffffffffffffffffffffff1681526020013373ffffffffffffffffffffffffffffffffffffffff168152602001848152602001838152602001828152506001600085815260200190815260200160002060008201518160000160006101000a81548173ffffffffffffffffffffffffffffffffffffffff021916908373ffffffffffffffffffffffffffffffffffffffff16021790555060208201518160010160006101000a81548173ffffffffffffffffffffffffffffffffffffffff021916908373ffffffffffffffffffffffffffffffffffffffff1602179055506040820151816002015560608201518160030155608082015181600401559050508373ffffffffffffffffffffffffffffffffffffffff1663f242432a333086866040518563ffffffff1660e01b81526004016104199493929190610a26565b600060405180830381600087803b15801561043357600080fd5b505af1158015610447573d6000803e3d6000fd5b505050506104536104be565b50505050565b600063f23a6e6160e01b905095945050505050565b600260005414156104b4576040517f08c379a00000000000000000000000000000000000000000000000000000000081526004016104ab90610afe565b60405180910390fd5b6002600081905550565b6001600081905550565b6000604051905090565b600080fd5b600080fd5b600073ffffffffffffffffffffffffffffffffffffffff82169050919050565b6000610507826104dc565b9050919050565b610517816104fc565b811461052257600080fd5b50565b6000813590506105348161050e565b92915050565b6000819050919050565b61054d8161053a565b811461055857600080fd5b50565b60008135905061056a81610544565b92915050565b600080600060608486031215610589576105886104d2565b5b600061059786828701610525565b93505060206105a88682870161055b565b92505060406105b98682870161055b565b9150509250925092565b6000602082840312156105d9576105d86104d2565b5b60006105e78482850161055b565b91505092915050565b6105f98161053a565b82525050565b600060208201905061061460008301846105f0565b92915050565b60008060008060808587031215610634576106336104d2565b5b600061064287828801610525565b94505060206106538782880161055b565b93505060406106648782880161055b565b92505060606106758782880161055b565b91505092959194509250565b600080fd5b600080fd5b6000601f19601f8301169050919050565b7f4e487b7100000000000000000000000000000000000000000000000000000000600052604160045260246000fd5b6106d48261068b565b810181811067ffffffffffffffff821117156106f3576106f261069c565b5b80604052505050565b60006107066104c8565b905061071282826106cb565b919050565b600067ffffffffffffffff8211156107325761073161069c565b5b61073b8261068b565b9050602081019050919050565b82818337600083830152505050565b600061076a61076584610717565b6106fc565b90508281526020810184848401111561078657610785610686565b5b610791848285610748565b509392505050565b600082601f8301126107ae576107ad610681565b5b81356107be848260208601610757565b91505092915050565b600080600080600060a086880312156107e3576107e26104d2565b5b60006107f188828901610525565b955050602061080288828901610525565b94505060406108138882890161055b565b93505060606108248882890161055b565b925050608086013567ffffffffffffffff811115610845576108446104d7565b5b61085188828901610799565b9150509295509295909350565b60007fffffffff0000000000000000000000000000000000000000000000000000000082169050919050565b6108938161085e565b82525050565b60006020820190506108ae600083018461088a565b92915050565b7f4e487b7100000000000000000000000000000000000000000000000000000000600052601160045260246000fd5b60006108ee8261053a565b91506108f98361053a565b9250817fffffffffffffffffffffffffffffffffffffffffffffffffffffffffffffffff0483118215151615610932576109316108b4565b5b828202905092915050565b600082825260208201905092915050565b7f50726f7669646564206d73672e76616c7565206973206e6f7420656e6f75676860008201527f20666f7220627579696e67207468617420616d6f756e74206f6620746f6b656e602082015250565b60006109aa60408361093d565b91506109b58261094e565b604082019050919050565b600060208201905081810360008301526109d98161099d565b9050919050565b6109e9816104fc565b82525050565b600082825260208201905092915050565b50565b6000610a106000836109ef565b9150610a1b82610a00565b600082019050919050565b600060a082019050610a3b60008301876109e0565b610a4860208301866109e0565b610a5560408301856105f0565b610a6260608301846105f0565b8181036080830152610a7381610a03565b905095945050505050565b6000610a898261053a565b9150610a948361053a565b925082821015610aa757610aa66108b4565b5b828203905092915050565b7f5265656e7472616e637947756172643a207265656e7472616e742063616c6c00600082015250565b6000610ae8601f8361093d565b9150610af382610ab2565b602082019050919050565b60006020820190508181036000830152610b1781610adb565b905091905056fea2646970667358221220bf27305ce93096bfbd3c4f92a808657a429477cdc8d212ac0e76794774219b3a64736f6c63430008090033",
  "linkReferences": {},
  "deployedLinkReferences": {}
}